{
	"Auctions/_EnglishAuction.sol": {
		"EnglishAuction": {
			"abi": [
				{
					"inputs": [
						{
							"internalType": "string",
							"name": "_item",
							"type": "string"
						},
						{
							"internalType": "uint256",
							"name": "_startingBid",
							"type": "uint256"
						}
					],
					"stateMutability": "nonpayable",
					"type": "constructor"
				},
				{
					"anonymous": false,
					"inputs": [
						{
							"indexed": false,
							"internalType": "address",
							"name": "_bidder",
							"type": "address"
						},
						{
							"indexed": false,
							"internalType": "uint256",
							"name": "_bid",
							"type": "uint256"
						}
					],
					"name": "Bid",
					"type": "event"
				},
				{
					"anonymous": false,
					"inputs": [
						{
							"indexed": false,
							"internalType": "address",
							"name": "_highestBidder",
							"type": "address"
						},
						{
							"indexed": false,
							"internalType": "uint256",
							"name": "_highestBid",
							"type": "uint256"
						}
					],
					"name": "End",
					"type": "event"
				},
				{
					"anonymous": false,
					"inputs": [
						{
							"indexed": false,
							"internalType": "string",
							"name": "_item",
							"type": "string"
						},
						{
							"indexed": false,
							"internalType": "uint256",
							"name": "_currentPrice",
							"type": "uint256"
						}
					],
					"name": "Start",
					"type": "event"
				},
				{
					"inputs": [],
					"name": "bid",
					"outputs": [],
					"stateMutability": "payable",
					"type": "function"
				},
				{
					"inputs": [
						{
							"internalType": "address",
							"name": "",
							"type": "address"
						}
					],
					"name": "bids",
					"outputs": [
						{
							"internalType": "uint256",
							"name": "",
							"type": "uint256"
						}
					],
					"stateMutability": "view",
					"type": "function"
				},
				{
					"inputs": [],
					"name": "end",
					"outputs": [],
					"stateMutability": "nonpayable",
					"type": "function"
				},
				{
					"inputs": [],
					"name": "endAt",
					"outputs": [
						{
							"internalType": "uint256",
							"name": "",
							"type": "uint256"
						}
					],
					"stateMutability": "view",
					"type": "function"
				},
				{
					"inputs": [],
					"name": "ended",
					"outputs": [
						{
							"internalType": "bool",
							"name": "",
							"type": "bool"
						}
					],
					"stateMutability": "view",
					"type": "function"
				},
				{
					"inputs": [],
					"name": "highestBid",
					"outputs": [
						{
							"internalType": "uint256",
							"name": "",
							"type": "uint256"
						}
					],
					"stateMutability": "view",
					"type": "function"
				},
				{
					"inputs": [],
					"name": "highestBidder",
					"outputs": [
						{
							"internalType": "address",
							"name": "",
							"type": "address"
						}
					],
					"stateMutability": "view",
					"type": "function"
				},
				{
					"inputs": [],
					"name": "item",
					"outputs": [
						{
							"internalType": "string",
							"name": "",
							"type": "string"
						}
					],
					"stateMutability": "view",
					"type": "function"
				},
				{
					"inputs": [],
					"name": "seller",
					"outputs": [
						{
							"internalType": "address payable",
							"name": "",
							"type": "address"
						}
					],
					"stateMutability": "view",
					"type": "function"
				},
				{
					"inputs": [],
					"name": "start",
					"outputs": [],
					"stateMutability": "nonpayable",
					"type": "function"
				},
				{
					"inputs": [],
					"name": "started",
					"outputs": [
						{
							"internalType": "bool",
							"name": "",
							"type": "bool"
						}
					],
					"stateMutability": "view",
					"type": "function"
				},
				{
					"inputs": [],
					"name": "withdraw",
					"outputs": [],
					"stateMutability": "nonpayable",
					"type": "function"
				}
			],
			"devdoc": {
				"kind": "dev",
				"methods": {},
				"version": 1
			},
			"evm": {
				"assembly": "    /* \"Auctions/_EnglishAuction.sol\":61:1951  contract EnglishAuction{... */\n  mstore(0x40, 0xa0)\n    /* \"Auctions/_EnglishAuction.sol\":480:630  constructor(string memory _item,uint _startingBid){... */\n  callvalue\n  dup1\n  iszero\n  tag_1\n  jumpi\n  0x00\n  dup1\n  revert\ntag_1:\n  pop\n  mload(0x40)\n  sub(codesize, bytecodeSize)\n  dup1\n  bytecodeSize\n  dup4\n  codecopy\n  dup2\n  dup2\n  add\n  0x40\n  mstore\n  dup2\n  add\n  swap1\n  tag_2\n  swap2\n  swap1\n  tag_3\n  jump\t// in\ntag_2:\n    /* \"Auctions/_EnglishAuction.sol\":545:550  _item */\n  dup2\n    /* \"Auctions/_EnglishAuction.sol\":540:544  item */\n  0x00\n    /* \"Auctions/_EnglishAuction.sol\":540:550  item=_item */\n  swap1\n  dup1\n  mload\n  swap1\n  0x20\n  add\n  swap1\n  tag_6\n  swap3\n  swap2\n  swap1\n  tag_7\n  jump\t// in\ntag_6:\n  pop\n    /* \"Auctions/_EnglishAuction.sol\":573:585  _startingBid */\n  dup1\n    /* \"Auctions/_EnglishAuction.sol\":560:570  highestBid */\n  0x03\n    /* \"Auctions/_EnglishAuction.sol\":560:585  highestBid = _startingBid */\n  dup2\n  swap1\n  sstore\n  pop\n    /* \"Auctions/_EnglishAuction.sol\":612:622  msg.sender */\n  caller\n    /* \"Auctions/_EnglishAuction.sol\":595:623  seller = payable(msg.sender) */\n  0xffffffffffffffffffffffffffffffffffffffff\n  and\n  0x80\n  dup2\n  0xffffffffffffffffffffffffffffffffffffffff\n  and\n  0x60\n  shl\n  dup2\n  mstore\n  pop\n  pop\n    /* \"Auctions/_EnglishAuction.sol\":480:630  constructor(string memory _item,uint _startingBid){... */\n  pop\n  pop\n    /* \"Auctions/_EnglishAuction.sol\":61:1951  contract EnglishAuction{... */\n  jump(tag_8)\ntag_7:\n  dup3\n  dup1\n  sload\n  tag_9\n  swap1\n  tag_10\n  jump\t// in\ntag_9:\n  swap1\n  0x00\n  mstore\n  keccak256(0x00, 0x20)\n  swap1\n  0x1f\n  add\n  0x20\n  swap1\n  div\n  dup2\n  add\n  swap3\n  dup3\n  tag_12\n  jumpi\n  0x00\n  dup6\n  sstore\n  jump(tag_11)\ntag_12:\n  dup3\n  0x1f\n  lt\n  tag_13\n  jumpi\n  dup1\n  mload\n  not(0xff)\n  and\n  dup4\n  dup1\n  add\n  or\n  dup6\n  sstore\n  jump(tag_11)\ntag_13:\n  dup3\n  dup1\n  add\n  0x01\n  add\n  dup6\n  sstore\n  dup3\n  iszero\n  tag_11\n  jumpi\n  swap2\n  dup3\n  add\ntag_14:\n  dup3\n  dup2\n  gt\n  iszero\n  tag_15\n  jumpi\n  dup3\n  mload\n  dup3\n  sstore\n  swap2\n  0x20\n  add\n  swap2\n  swap1\n  0x01\n  add\n  swap1\n  jump(tag_14)\ntag_15:\ntag_11:\n  pop\n  swap1\n  pop\n  tag_16\n  swap2\n  swap1\n  tag_17\n  jump\t// in\ntag_16:\n  pop\n  swap1\n  jump\t// out\ntag_17:\ntag_18:\n  dup1\n  dup3\n  gt\n  iszero\n  tag_19\n  jumpi\n  0x00\n  dup2\n  0x00\n  swap1\n  sstore\n  pop\n  0x01\n  add\n  jump(tag_18)\ntag_19:\n  pop\n  swap1\n  jump\t// out\n    /* \"#utility.yul\":7:428   */\ntag_21:\n    /* \"#utility.yul\":96:101   */\n  0x00\n    /* \"#utility.yul\":121:187   */\n  tag_23\n    /* \"#utility.yul\":137:186   */\n  tag_24\n    /* \"#utility.yul\":179:185   */\n  dup5\n    /* \"#utility.yul\":137:186   */\n  tag_25\n  jump\t// in\ntag_24:\n    /* \"#utility.yul\":121:187   */\n  tag_26\n  jump\t// in\ntag_23:\n    /* \"#utility.yul\":112:187   */\n  swap1\n  pop\n    /* \"#utility.yul\":210:216   */\n  dup3\n    /* \"#utility.yul\":203:208   */\n  dup2\n    /* \"#utility.yul\":196:217   */\n  mstore\n    /* \"#utility.yul\":248:252   */\n  0x20\n    /* \"#utility.yul\":241:246   */\n  dup2\n    /* \"#utility.yul\":237:253   */\n  add\n    /* \"#utility.yul\":286:289   */\n  dup5\n    /* \"#utility.yul\":277:283   */\n  dup5\n    /* \"#utility.yul\":272:275   */\n  dup5\n    /* \"#utility.yul\":268:284   */\n  add\n    /* \"#utility.yul\":265:290   */\n  gt\n    /* \"#utility.yul\":262:374   */\n  iszero\n  tag_27\n  jumpi\n    /* \"#utility.yul\":293:372   */\n  tag_28\n  tag_29\n  jump\t// in\ntag_28:\n    /* \"#utility.yul\":262:374   */\ntag_27:\n    /* \"#utility.yul\":383:422   */\n  tag_30\n    /* \"#utility.yul\":415:421   */\n  dup5\n    /* \"#utility.yul\":410:413   */\n  dup3\n    /* \"#utility.yul\":405:408   */\n  dup6\n    /* \"#utility.yul\":383:422   */\n  tag_31\n  jump\t// in\ntag_30:\n    /* \"#utility.yul\":102:428   */\n  pop\n    /* \"#utility.yul\":7:428   */\n  swap4\n  swap3\n  pop\n  pop\n  pop\n  jump\t// out\n    /* \"#utility.yul\":448:803   */\ntag_32:\n    /* \"#utility.yul\":515:520   */\n  0x00\n    /* \"#utility.yul\":564:567   */\n  dup3\n    /* \"#utility.yul\":557:561   */\n  0x1f\n    /* \"#utility.yul\":549:555   */\n  dup4\n    /* \"#utility.yul\":545:562   */\n  add\n    /* \"#utility.yul\":541:568   */\n  slt\n    /* \"#utility.yul\":531:653   */\n  tag_34\n  jumpi\n    /* \"#utility.yul\":572:651   */\n  tag_35\n  tag_36\n  jump\t// in\ntag_35:\n    /* \"#utility.yul\":531:653   */\ntag_34:\n    /* \"#utility.yul\":682:688   */\n  dup2\n    /* \"#utility.yul\":676:689   */\n  mload\n    /* \"#utility.yul\":707:797   */\n  tag_37\n    /* \"#utility.yul\":793:796   */\n  dup5\n    /* \"#utility.yul\":785:791   */\n  dup3\n    /* \"#utility.yul\":778:782   */\n  0x20\n    /* \"#utility.yul\":770:776   */\n  dup7\n    /* \"#utility.yul\":766:783   */\n  add\n    /* \"#utility.yul\":707:797   */\n  tag_21\n  jump\t// in\ntag_37:\n    /* \"#utility.yul\":698:797   */\n  swap2\n  pop\n    /* \"#utility.yul\":521:803   */\n  pop\n    /* \"#utility.yul\":448:803   */\n  swap3\n  swap2\n  pop\n  pop\n  jump\t// out\n    /* \"#utility.yul\":809:952   */\ntag_38:\n    /* \"#utility.yul\":866:871   */\n  0x00\n    /* \"#utility.yul\":897:903   */\n  dup2\n    /* \"#utility.yul\":891:904   */\n  mload\n    /* \"#utility.yul\":882:904   */\n  swap1\n  pop\n    /* \"#utility.yul\":913:946   */\n  tag_40\n    /* \"#utility.yul\":940:945   */\n  dup2\n    /* \"#utility.yul\":913:946   */\n  tag_41\n  jump\t// in\ntag_40:\n    /* \"#utility.yul\":809:952   */\n  swap3\n  swap2\n  pop\n  pop\n  jump\t// out\n    /* \"#utility.yul\":958:1638   */\ntag_3:\n    /* \"#utility.yul\":1047:1053   */\n  0x00\n    /* \"#utility.yul\":1055:1061   */\n  dup1\n    /* \"#utility.yul\":1104:1106   */\n  0x40\n    /* \"#utility.yul\":1092:1101   */\n  dup4\n    /* \"#utility.yul\":1083:1090   */\n  dup6\n    /* \"#utility.yul\":1079:1102   */\n  sub\n    /* \"#utility.yul\":1075:1107   */\n  slt\n    /* \"#utility.yul\":1072:1191   */\n  iszero\n  tag_43\n  jumpi\n    /* \"#utility.yul\":1110:1189   */\n  tag_44\n  tag_45\n  jump\t// in\ntag_44:\n    /* \"#utility.yul\":1072:1191   */\ntag_43:\n    /* \"#utility.yul\":1251:1252   */\n  0x00\n    /* \"#utility.yul\":1240:1249   */\n  dup4\n    /* \"#utility.yul\":1236:1253   */\n  add\n    /* \"#utility.yul\":1230:1254   */\n  mload\n    /* \"#utility.yul\":1281:1299   */\n  0xffffffffffffffff\n    /* \"#utility.yul\":1273:1279   */\n  dup2\n    /* \"#utility.yul\":1270:1300   */\n  gt\n    /* \"#utility.yul\":1267:1384   */\n  iszero\n  tag_46\n  jumpi\n    /* \"#utility.yul\":1303:1382   */\n  tag_47\n  tag_48\n  jump\t// in\ntag_47:\n    /* \"#utility.yul\":1267:1384   */\ntag_46:\n    /* \"#utility.yul\":1408:1482   */\n  tag_49\n    /* \"#utility.yul\":1474:1481   */\n  dup6\n    /* \"#utility.yul\":1465:1471   */\n  dup3\n    /* \"#utility.yul\":1454:1463   */\n  dup7\n    /* \"#utility.yul\":1450:1472   */\n  add\n    /* \"#utility.yul\":1408:1482   */\n  tag_32\n  jump\t// in\ntag_49:\n    /* \"#utility.yul\":1398:1482   */\n  swap3\n  pop\n    /* \"#utility.yul\":1201:1492   */\n  pop\n    /* \"#utility.yul\":1531:1533   */\n  0x20\n    /* \"#utility.yul\":1557:1621   */\n  tag_50\n    /* \"#utility.yul\":1613:1620   */\n  dup6\n    /* \"#utility.yul\":1604:1610   */\n  dup3\n    /* \"#utility.yul\":1593:1602   */\n  dup7\n    /* \"#utility.yul\":1589:1611   */\n  add\n    /* \"#utility.yul\":1557:1621   */\n  tag_38\n  jump\t// in\ntag_50:\n    /* \"#utility.yul\":1547:1621   */\n  swap2\n  pop\n    /* \"#utility.yul\":1502:1631   */\n  pop\n    /* \"#utility.yul\":958:1638   */\n  swap3\n  pop\n  swap3\n  swap1\n  pop\n  jump\t// out\n    /* \"#utility.yul\":1644:1773   */\ntag_26:\n    /* \"#utility.yul\":1678:1684   */\n  0x00\n    /* \"#utility.yul\":1705:1725   */\n  tag_52\n  tag_53\n  jump\t// in\ntag_52:\n    /* \"#utility.yul\":1695:1725   */\n  swap1\n  pop\n    /* \"#utility.yul\":1734:1767   */\n  tag_54\n    /* \"#utility.yul\":1762:1766   */\n  dup3\n    /* \"#utility.yul\":1754:1760   */\n  dup3\n    /* \"#utility.yul\":1734:1767   */\n  tag_55\n  jump\t// in\ntag_54:\n    /* \"#utility.yul\":1644:1773   */\n  swap2\n  swap1\n  pop\n  jump\t// out\n    /* \"#utility.yul\":1779:1854   */\ntag_53:\n    /* \"#utility.yul\":1812:1818   */\n  0x00\n    /* \"#utility.yul\":1845:1847   */\n  0x40\n    /* \"#utility.yul\":1839:1848   */\n  mload\n    /* \"#utility.yul\":1829:1848   */\n  swap1\n  pop\n    /* \"#utility.yul\":1779:1854   */\n  swap1\n  jump\t// out\n    /* \"#utility.yul\":1860:2168   */\ntag_25:\n    /* \"#utility.yul\":1922:1926   */\n  0x00\n    /* \"#utility.yul\":2012:2030   */\n  0xffffffffffffffff\n    /* \"#utility.yul\":2004:2010   */\n  dup3\n    /* \"#utility.yul\":2001:2031   */\n  gt\n    /* \"#utility.yul\":1998:2054   */\n  iszero\n  tag_58\n  jumpi\n    /* \"#utility.yul\":2034:2052   */\n  tag_59\n  tag_60\n  jump\t// in\ntag_59:\n    /* \"#utility.yul\":1998:2054   */\ntag_58:\n    /* \"#utility.yul\":2072:2101   */\n  tag_61\n    /* \"#utility.yul\":2094:2100   */\n  dup3\n    /* \"#utility.yul\":2072:2101   */\n  tag_62\n  jump\t// in\ntag_61:\n    /* \"#utility.yul\":2064:2101   */\n  swap1\n  pop\n    /* \"#utility.yul\":2156:2160   */\n  0x20\n    /* \"#utility.yul\":2150:2154   */\n  dup2\n    /* \"#utility.yul\":2146:2161   */\n  add\n    /* \"#utility.yul\":2138:2161   */\n  swap1\n  pop\n    /* \"#utility.yul\":1860:2168   */\n  swap2\n  swap1\n  pop\n  jump\t// out\n    /* \"#utility.yul\":2174:2251   */\ntag_63:\n    /* \"#utility.yul\":2211:2218   */\n  0x00\n    /* \"#utility.yul\":2240:2245   */\n  dup2\n    /* \"#utility.yul\":2229:2245   */\n  swap1\n  pop\n    /* \"#utility.yul\":2174:2251   */\n  swap2\n  swap1\n  pop\n  jump\t// out\n    /* \"#utility.yul\":2257:2564   */\ntag_31:\n    /* \"#utility.yul\":2325:2326   */\n  0x00\n    /* \"#utility.yul\":2335:2448   */\ntag_66:\n    /* \"#utility.yul\":2349:2355   */\n  dup4\n    /* \"#utility.yul\":2346:2347   */\n  dup2\n    /* \"#utility.yul\":2343:2356   */\n  lt\n    /* \"#utility.yul\":2335:2448   */\n  iszero\n  tag_68\n  jumpi\n    /* \"#utility.yul\":2434:2435   */\n  dup1\n    /* \"#utility.yul\":2429:2432   */\n  dup3\n    /* \"#utility.yul\":2425:2436   */\n  add\n    /* \"#utility.yul\":2419:2437   */\n  mload\n    /* \"#utility.yul\":2415:2416   */\n  dup2\n    /* \"#utility.yul\":2410:2413   */\n  dup5\n    /* \"#utility.yul\":2406:2417   */\n  add\n    /* \"#utility.yul\":2399:2438   */\n  mstore\n    /* \"#utility.yul\":2371:2373   */\n  0x20\n    /* \"#utility.yul\":2368:2369   */\n  dup2\n    /* \"#utility.yul\":2364:2374   */\n  add\n    /* \"#utility.yul\":2359:2374   */\n  swap1\n  pop\n    /* \"#utility.yul\":2335:2448   */\n  jump(tag_66)\ntag_68:\n    /* \"#utility.yul\":2466:2472   */\n  dup4\n    /* \"#utility.yul\":2463:2464   */\n  dup2\n    /* \"#utility.yul\":2460:2473   */\n  gt\n    /* \"#utility.yul\":2457:2558   */\n  iszero\n  tag_69\n  jumpi\n    /* \"#utility.yul\":2546:2547   */\n  0x00\n    /* \"#utility.yul\":2537:2543   */\n  dup5\n    /* \"#utility.yul\":2532:2535   */\n  dup5\n    /* \"#utility.yul\":2528:2544   */\n  add\n    /* \"#utility.yul\":2521:2548   */\n  mstore\n    /* \"#utility.yul\":2457:2558   */\ntag_69:\n    /* \"#utility.yul\":2306:2564   */\n  pop\n    /* \"#utility.yul\":2257:2564   */\n  pop\n  pop\n  pop\n  jump\t// out\n    /* \"#utility.yul\":2570:2890   */\ntag_10:\n    /* \"#utility.yul\":2614:2620   */\n  0x00\n    /* \"#utility.yul\":2651:2652   */\n  0x02\n    /* \"#utility.yul\":2645:2649   */\n  dup3\n    /* \"#utility.yul\":2641:2653   */\n  div\n    /* \"#utility.yul\":2631:2653   */\n  swap1\n  pop\n    /* \"#utility.yul\":2698:2699   */\n  0x01\n    /* \"#utility.yul\":2692:2696   */\n  dup3\n    /* \"#utility.yul\":2688:2700   */\n  and\n    /* \"#utility.yul\":2719:2737   */\n  dup1\n    /* \"#utility.yul\":2709:2790   */\n  tag_71\n  jumpi\n    /* \"#utility.yul\":2775:2779   */\n  0x7f\n    /* \"#utility.yul\":2767:2773   */\n  dup3\n    /* \"#utility.yul\":2763:2780   */\n  and\n    /* \"#utility.yul\":2753:2780   */\n  swap2\n  pop\n    /* \"#utility.yul\":2709:2790   */\ntag_71:\n    /* \"#utility.yul\":2837:2839   */\n  0x20\n    /* \"#utility.yul\":2829:2835   */\n  dup3\n    /* \"#utility.yul\":2826:2840   */\n  lt\n    /* \"#utility.yul\":2806:2824   */\n  dup2\n    /* \"#utility.yul\":2803:2841   */\n  eq\n    /* \"#utility.yul\":2800:2884   */\n  iszero\n  tag_72\n  jumpi\n    /* \"#utility.yul\":2856:2874   */\n  tag_73\n  tag_74\n  jump\t// in\ntag_73:\n    /* \"#utility.yul\":2800:2884   */\ntag_72:\n    /* \"#utility.yul\":2621:2890   */\n  pop\n    /* \"#utility.yul\":2570:2890   */\n  swap2\n  swap1\n  pop\n  jump\t// out\n    /* \"#utility.yul\":2896:3177   */\ntag_55:\n    /* \"#utility.yul\":2979:3006   */\n  tag_76\n    /* \"#utility.yul\":3001:3005   */\n  dup3\n    /* \"#utility.yul\":2979:3006   */\n  tag_62\n  jump\t// in\ntag_76:\n    /* \"#utility.yul\":2971:2977   */\n  dup2\n    /* \"#utility.yul\":2967:3007   */\n  add\n    /* \"#utility.yul\":3109:3115   */\n  dup2\n    /* \"#utility.yul\":3097:3107   */\n  dup2\n    /* \"#utility.yul\":3094:3116   */\n  lt\n    /* \"#utility.yul\":3073:3091   */\n  0xffffffffffffffff\n    /* \"#utility.yul\":3061:3071   */\n  dup3\n    /* \"#utility.yul\":3058:3092   */\n  gt\n    /* \"#utility.yul\":3055:3117   */\n  or\n    /* \"#utility.yul\":3052:3140   */\n  iszero\n  tag_77\n  jumpi\n    /* \"#utility.yul\":3120:3138   */\n  tag_78\n  tag_60\n  jump\t// in\ntag_78:\n    /* \"#utility.yul\":3052:3140   */\ntag_77:\n    /* \"#utility.yul\":3160:3170   */\n  dup1\n    /* \"#utility.yul\":3156:3158   */\n  0x40\n    /* \"#utility.yul\":3149:3171   */\n  mstore\n    /* \"#utility.yul\":2939:3177   */\n  pop\n    /* \"#utility.yul\":2896:3177   */\n  pop\n  pop\n  jump\t// out\n    /* \"#utility.yul\":3183:3363   */\ntag_74:\n    /* \"#utility.yul\":3231:3308   */\n  0x4e487b7100000000000000000000000000000000000000000000000000000000\n    /* \"#utility.yul\":3228:3229   */\n  0x00\n    /* \"#utility.yul\":3221:3309   */\n  mstore\n    /* \"#utility.yul\":3328:3332   */\n  0x22\n    /* \"#utility.yul\":3325:3326   */\n  0x04\n    /* \"#utility.yul\":3318:3333   */\n  mstore\n    /* \"#utility.yul\":3352:3356   */\n  0x24\n    /* \"#utility.yul\":3349:3350   */\n  0x00\n    /* \"#utility.yul\":3342:3357   */\n  revert\n    /* \"#utility.yul\":3369:3549   */\ntag_60:\n    /* \"#utility.yul\":3417:3494   */\n  0x4e487b7100000000000000000000000000000000000000000000000000000000\n    /* \"#utility.yul\":3414:3415   */\n  0x00\n    /* \"#utility.yul\":3407:3495   */\n  mstore\n    /* \"#utility.yul\":3514:3518   */\n  0x41\n    /* \"#utility.yul\":3511:3512   */\n  0x04\n    /* \"#utility.yul\":3504:3519   */\n  mstore\n    /* \"#utility.yul\":3538:3542   */\n  0x24\n    /* \"#utility.yul\":3535:3536   */\n  0x00\n    /* \"#utility.yul\":3528:3543   */\n  revert\n    /* \"#utility.yul\":3555:3672   */\ntag_36:\n    /* \"#utility.yul\":3664:3665   */\n  0x00\n    /* \"#utility.yul\":3661:3662   */\n  dup1\n    /* \"#utility.yul\":3654:3666   */\n  revert\n    /* \"#utility.yul\":3678:3795   */\ntag_29:\n    /* \"#utility.yul\":3787:3788   */\n  0x00\n    /* \"#utility.yul\":3784:3785   */\n  dup1\n    /* \"#utility.yul\":3777:3789   */\n  revert\n    /* \"#utility.yul\":3801:3918   */\ntag_48:\n    /* \"#utility.yul\":3910:3911   */\n  0x00\n    /* \"#utility.yul\":3907:3908   */\n  dup1\n    /* \"#utility.yul\":3900:3912   */\n  revert\n    /* \"#utility.yul\":3924:4041   */\ntag_45:\n    /* \"#utility.yul\":4033:4034   */\n  0x00\n    /* \"#utility.yul\":4030:4031   */\n  dup1\n    /* \"#utility.yul\":4023:4035   */\n  revert\n    /* \"#utility.yul\":4047:4149   */\ntag_62:\n    /* \"#utility.yul\":4088:4094   */\n  0x00\n    /* \"#utility.yul\":4139:4141   */\n  0x1f\n    /* \"#utility.yul\":4135:4142   */\n  not\n    /* \"#utility.yul\":4130:4132   */\n  0x1f\n    /* \"#utility.yul\":4123:4128   */\n  dup4\n    /* \"#utility.yul\":4119:4133   */\n  add\n    /* \"#utility.yul\":4115:4143   */\n  and\n    /* \"#utility.yul\":4105:4143   */\n  swap1\n  pop\n    /* \"#utility.yul\":4047:4149   */\n  swap2\n  swap1\n  pop\n  jump\t// out\n    /* \"#utility.yul\":4155:4277   */\ntag_41:\n    /* \"#utility.yul\":4228:4252   */\n  tag_87\n    /* \"#utility.yul\":4246:4251   */\n  dup2\n    /* \"#utility.yul\":4228:4252   */\n  tag_63\n  jump\t// in\ntag_87:\n    /* \"#utility.yul\":4221:4226   */\n  dup2\n    /* \"#utility.yul\":4218:4253   */\n  eq\n    /* \"#utility.yul\":4208:4271   */\n  tag_88\n  jumpi\n    /* \"#utility.yul\":4267:4268   */\n  0x00\n    /* \"#utility.yul\":4264:4265   */\n  dup1\n    /* \"#utility.yul\":4257:4269   */\n  revert\n    /* \"#utility.yul\":4208:4271   */\ntag_88:\n    /* \"#utility.yul\":4155:4277   */\n  pop\n  jump\t// out\n    /* \"Auctions/_EnglishAuction.sol\":61:1951  contract EnglishAuction{... */\ntag_8:\n  shr(0x60, mload(0x80))\n  codecopy(0x00, dataOffset(sub_0), dataSize(sub_0))\n  0x00\n  assignImmutable(\"0xceebf77a833b30520287ddd9478ff51abbdffa30aa90a8d655dba0e8a79ce0c1\")\n  return(0x00, dataSize(sub_0))\nstop\n\nsub_0: assembly {\n        /* \"Auctions/_EnglishAuction.sol\":61:1951  contract EnglishAuction{... */\n      mstore(0x40, 0x80)\n      jumpi(tag_1, lt(calldatasize, 0x04))\n      shr(0xe0, calldataload(0x00))\n      dup1\n      0x7cc3ae8c\n      gt\n      tag_14\n      jumpi\n      dup1\n      0x7cc3ae8c\n      eq\n      tag_8\n      jumpi\n      dup1\n      0x91f90157\n      eq\n      tag_9\n      jumpi\n      dup1\n      0xbe9a6555\n      eq\n      tag_10\n      jumpi\n      dup1\n      0xd57bde79\n      eq\n      tag_11\n      jumpi\n      dup1\n      0xefbe1c1c\n      eq\n      tag_12\n      jumpi\n      dup1\n      0xf2a4a82e\n      eq\n      tag_13\n      jumpi\n      jump(tag_1)\n    tag_14:\n      dup1\n      0x08551a53\n      eq\n      tag_2\n      jumpi\n      dup1\n      0x12fa6feb\n      eq\n      tag_3\n      jumpi\n      dup1\n      0x1998aeef\n      eq\n      tag_4\n      jumpi\n      dup1\n      0x1f2698ab\n      eq\n      tag_5\n      jumpi\n      dup1\n      0x3ccfd60b\n      eq\n      tag_6\n      jumpi\n      dup1\n      0x62ea82db\n      eq\n      tag_7\n      jumpi\n    tag_1:\n      0x00\n      dup1\n      revert\n        /* \"Auctions/_EnglishAuction.sol\":114:153  address payable public immutable seller */\n    tag_2:\n      callvalue\n      dup1\n      iszero\n      tag_15\n      jumpi\n      0x00\n      dup1\n      revert\n    tag_15:\n      pop\n      tag_16\n      tag_17\n      jump\t// in\n    tag_16:\n      mload(0x40)\n      tag_18\n      swap2\n      swap1\n      tag_19\n      jump\t// in\n    tag_18:\n      mload(0x40)\n      dup1\n      swap2\n      sub\n      swap1\n      return\n        /* \"Auctions/_EnglishAuction.sol\":207:224  bool public ended */\n    tag_3:\n      callvalue\n      dup1\n      iszero\n      tag_20\n      jumpi\n      0x00\n      dup1\n      revert\n    tag_20:\n      pop\n      tag_21\n      tag_22\n      jump\t// in\n    tag_21:\n      mload(0x40)\n      tag_23\n      swap2\n      swap1\n      tag_24\n      jump\t// in\n    tag_23:\n      mload(0x40)\n      dup1\n      swap2\n      sub\n      swap1\n      return\n        /* \"Auctions/_EnglishAuction.sol\":1121:1441  function bid() public payable hasStarted  {... */\n    tag_4:\n      tag_25\n      tag_26\n      jump\t// in\n    tag_25:\n      stop\n        /* \"Auctions/_EnglishAuction.sol\":182:201  bool public started */\n    tag_5:\n      callvalue\n      dup1\n      iszero\n      tag_27\n      jumpi\n      0x00\n      dup1\n      revert\n    tag_27:\n      pop\n      tag_28\n      tag_29\n      jump\t// in\n    tag_28:\n      mload(0x40)\n      tag_30\n      swap2\n      swap1\n      tag_24\n      jump\t// in\n    tag_30:\n      mload(0x40)\n      dup1\n      swap2\n      sub\n      swap1\n      return\n        /* \"Auctions/_EnglishAuction.sol\":1755:1949  function withdraw() external {... */\n    tag_6:\n      callvalue\n      dup1\n      iszero\n      tag_31\n      jumpi\n      0x00\n      dup1\n      revert\n    tag_31:\n      pop\n      tag_32\n      tag_33\n      jump\t// in\n    tag_32:\n      stop\n        /* \"Auctions/_EnglishAuction.sol\":292:326  mapping(address=>uint) public bids */\n    tag_7:\n      callvalue\n      dup1\n      iszero\n      tag_34\n      jumpi\n      0x00\n      dup1\n      revert\n    tag_34:\n      pop\n      tag_35\n      0x04\n      dup1\n      calldatasize\n      sub\n      dup2\n      add\n      swap1\n      tag_36\n      swap2\n      swap1\n      tag_37\n      jump\t// in\n    tag_36:\n      tag_38\n      jump\t// in\n    tag_35:\n      mload(0x40)\n      tag_39\n      swap2\n      swap1\n      tag_40\n      jump\t// in\n    tag_39:\n      mload(0x40)\n      dup1\n      swap2\n      sub\n      swap1\n      return\n        /* \"Auctions/_EnglishAuction.sol\":159:176  uint public endAt */\n    tag_8:\n      callvalue\n      dup1\n      iszero\n      tag_41\n      jumpi\n      0x00\n      dup1\n      revert\n    tag_41:\n      pop\n      tag_42\n      tag_43\n      jump\t// in\n    tag_42:\n      mload(0x40)\n      tag_44\n      swap2\n      swap1\n      tag_40\n      jump\t// in\n    tag_44:\n      mload(0x40)\n      dup1\n      swap2\n      sub\n      swap1\n      return\n        /* \"Auctions/_EnglishAuction.sol\":258:286  address public highestBidder */\n    tag_9:\n      callvalue\n      dup1\n      iszero\n      tag_45\n      jumpi\n      0x00\n      dup1\n      revert\n    tag_45:\n      pop\n      tag_46\n      tag_47\n      jump\t// in\n    tag_46:\n      mload(0x40)\n      tag_48\n      swap2\n      swap1\n      tag_49\n      jump\t// in\n    tag_48:\n      mload(0x40)\n      dup1\n      swap2\n      sub\n      swap1\n      return\n        /* \"Auctions/_EnglishAuction.sol\":929:1116  function start() external onlySeller {... */\n    tag_10:\n      callvalue\n      dup1\n      iszero\n      tag_50\n      jumpi\n      0x00\n      dup1\n      revert\n    tag_50:\n      pop\n      tag_51\n      tag_52\n      jump\t// in\n    tag_51:\n      stop\n        /* \"Auctions/_EnglishAuction.sol\":230:252  uint public highestBid */\n    tag_11:\n      callvalue\n      dup1\n      iszero\n      tag_53\n      jumpi\n      0x00\n      dup1\n      revert\n    tag_53:\n      pop\n      tag_54\n      tag_55\n      jump\t// in\n    tag_54:\n      mload(0x40)\n      tag_56\n      swap2\n      swap1\n      tag_40\n      jump\t// in\n    tag_56:\n      mload(0x40)\n      dup1\n      swap2\n      sub\n      swap1\n      return\n        /* \"Auctions/_EnglishAuction.sol\":1446:1750  function end() external hasStarted {... */\n    tag_12:\n      callvalue\n      dup1\n      iszero\n      tag_57\n      jumpi\n      0x00\n      dup1\n      revert\n    tag_57:\n      pop\n      tag_58\n      tag_59\n      jump\t// in\n    tag_58:\n      stop\n        /* \"Auctions/_EnglishAuction.sol\":90:108  string public item */\n    tag_13:\n      callvalue\n      dup1\n      iszero\n      tag_60\n      jumpi\n      0x00\n      dup1\n      revert\n    tag_60:\n      pop\n      tag_61\n      tag_62\n      jump\t// in\n    tag_61:\n      mload(0x40)\n      tag_63\n      swap2\n      swap1\n      tag_64\n      jump\t// in\n    tag_63:\n      mload(0x40)\n      dup1\n      swap2\n      sub\n      swap1\n      return\n        /* \"Auctions/_EnglishAuction.sol\":114:153  address payable public immutable seller */\n    tag_17:\n      immutable(\"0xceebf77a833b30520287ddd9478ff51abbdffa30aa90a8d655dba0e8a79ce0c1\")\n      dup2\n      jump\t// out\n        /* \"Auctions/_EnglishAuction.sol\":207:224  bool public ended */\n    tag_22:\n      0x02\n      0x01\n      swap1\n      sload\n      swap1\n      0x0100\n      exp\n      swap1\n      div\n      0xff\n      and\n      dup2\n      jump\t// out\n        /* \"Auctions/_EnglishAuction.sol\":1121:1441  function bid() public payable hasStarted  {... */\n    tag_26:\n        /* \"Auctions/_EnglishAuction.sol\":771:778  started */\n      0x02\n      0x00\n      swap1\n      sload\n      swap1\n      0x0100\n      exp\n      swap1\n      div\n      0xff\n      and\n        /* \"Auctions/_EnglishAuction.sol\":763:802  require(started,\"IT AINT STARTED FOOL\") */\n      tag_66\n      jumpi\n      mload(0x40)\n      0x08c379a000000000000000000000000000000000000000000000000000000000\n      dup2\n      mstore\n      0x04\n      add\n      tag_67\n      swap1\n      tag_68\n      jump\t// in\n    tag_67:\n      mload(0x40)\n      dup1\n      swap2\n      sub\n      swap1\n      revert\n    tag_66:\n        /* \"Auctions/_EnglishAuction.sol\":1193:1203  highestBid */\n      sload(0x03)\n        /* \"Auctions/_EnglishAuction.sol\":1181:1190  msg.value */\n      callvalue\n        /* \"Auctions/_EnglishAuction.sol\":1181:1203  msg.value > highestBid */\n      gt\n        /* \"Auctions/_EnglishAuction.sol\":1173:1228  require(msg.value > highestBid,\"YOU BROKE? NOT ENOUGH\") */\n      tag_70\n      jumpi\n      mload(0x40)\n      0x08c379a000000000000000000000000000000000000000000000000000000000\n      dup2\n      mstore\n      0x04\n      add\n      tag_71\n      swap1\n      tag_72\n      jump\t// in\n    tag_71:\n      mload(0x40)\n      dup1\n      swap2\n      sub\n      swap1\n      revert\n    tag_70:\n        /* \"Auctions/_EnglishAuction.sol\":1266:1267  0 */\n      0x00\n        /* \"Auctions/_EnglishAuction.sol\":1241:1268  highestBidder != address(0) */\n      0xffffffffffffffffffffffffffffffffffffffff\n      and\n        /* \"Auctions/_EnglishAuction.sol\":1241:1254  highestBidder */\n      0x04\n      0x00\n      swap1\n      sload\n      swap1\n      0x0100\n      exp\n      swap1\n      div\n      0xffffffffffffffffffffffffffffffffffffffff\n      and\n        /* \"Auctions/_EnglishAuction.sol\":1241:1268  highestBidder != address(0) */\n      0xffffffffffffffffffffffffffffffffffffffff\n      and\n      eq\n        /* \"Auctions/_EnglishAuction.sol\":1238:1326  if(highestBidder != address(0)){... */\n      tag_73\n      jumpi\n        /* \"Auctions/_EnglishAuction.sol\":1305:1315  highestBid */\n      sload(0x03)\n        /* \"Auctions/_EnglishAuction.sol\":1283:1287  bids */\n      0x05\n        /* \"Auctions/_EnglishAuction.sol\":1283:1302  bids[highestBidder] */\n      0x00\n        /* \"Auctions/_EnglishAuction.sol\":1288:1301  highestBidder */\n      0x04\n      0x00\n      swap1\n      sload\n      swap1\n      0x0100\n      exp\n      swap1\n      div\n      0xffffffffffffffffffffffffffffffffffffffff\n      and\n        /* \"Auctions/_EnglishAuction.sol\":1283:1302  bids[highestBidder] */\n      0xffffffffffffffffffffffffffffffffffffffff\n      and\n      0xffffffffffffffffffffffffffffffffffffffff\n      and\n      dup2\n      mstore\n      0x20\n      add\n      swap1\n      dup2\n      mstore\n      0x20\n      add\n      0x00\n      keccak256\n      0x00\n        /* \"Auctions/_EnglishAuction.sol\":1283:1315  bids[highestBidder] +=highestBid */\n      dup3\n      dup3\n      sload\n      tag_74\n      swap2\n      swap1\n      tag_75\n      jump\t// in\n    tag_74:\n      swap3\n      pop\n      pop\n      dup2\n      swap1\n      sstore\n      pop\n        /* \"Auctions/_EnglishAuction.sol\":1238:1326  if(highestBidder != address(0)){... */\n    tag_73:\n        /* \"Auctions/_EnglishAuction.sol\":1348:1357  msg.value */\n      callvalue\n        /* \"Auctions/_EnglishAuction.sol\":1335:1345  highestBid */\n      0x03\n        /* \"Auctions/_EnglishAuction.sol\":1335:1357  highestBid = msg.value */\n      dup2\n      swap1\n      sstore\n      pop\n        /* \"Auctions/_EnglishAuction.sol\":1383:1393  msg.sender */\n      caller\n        /* \"Auctions/_EnglishAuction.sol\":1367:1380  highestBidder */\n      0x04\n      0x00\n        /* \"Auctions/_EnglishAuction.sol\":1367:1393  highestBidder = msg.sender */\n      0x0100\n      exp\n      dup2\n      sload\n      dup2\n      0xffffffffffffffffffffffffffffffffffffffff\n      mul\n      not\n      and\n      swap1\n      dup4\n      0xffffffffffffffffffffffffffffffffffffffff\n      and\n      mul\n      or\n      swap1\n      sstore\n      pop\n        /* \"Auctions/_EnglishAuction.sol\":1408:1434  Bid(msg.sender, msg.value) */\n      0xe684a55f31b79eca403df938249029212a5925ec6be8012e099b45bc1019e5d2\n        /* \"Auctions/_EnglishAuction.sol\":1412:1422  msg.sender */\n      caller\n        /* \"Auctions/_EnglishAuction.sol\":1424:1433  msg.value */\n      callvalue\n        /* \"Auctions/_EnglishAuction.sol\":1408:1434  Bid(msg.sender, msg.value) */\n      mload(0x40)\n      tag_76\n      swap3\n      swap2\n      swap1\n      tag_77\n      jump\t// in\n    tag_76:\n      mload(0x40)\n      dup1\n      swap2\n      sub\n      swap1\n      log1\n        /* \"Auctions/_EnglishAuction.sol\":1121:1441  function bid() public payable hasStarted  {... */\n      jump\t// out\n        /* \"Auctions/_EnglishAuction.sol\":182:201  bool public started */\n    tag_29:\n      0x02\n      0x00\n      swap1\n      sload\n      swap1\n      0x0100\n      exp\n      swap1\n      div\n      0xff\n      and\n      dup2\n      jump\t// out\n        /* \"Auctions/_EnglishAuction.sol\":1755:1949  function withdraw() external {... */\n    tag_33:\n        /* \"Auctions/_EnglishAuction.sol\":1794:1805  uint refund */\n      0x00\n        /* \"Auctions/_EnglishAuction.sol\":1808:1812  bids */\n      0x05\n        /* \"Auctions/_EnglishAuction.sol\":1808:1824  bids[msg.sender] */\n      0x00\n        /* \"Auctions/_EnglishAuction.sol\":1813:1823  msg.sender */\n      caller\n        /* \"Auctions/_EnglishAuction.sol\":1808:1824  bids[msg.sender] */\n      0xffffffffffffffffffffffffffffffffffffffff\n      and\n      0xffffffffffffffffffffffffffffffffffffffff\n      and\n      dup2\n      mstore\n      0x20\n      add\n      swap1\n      dup2\n      mstore\n      0x20\n      add\n      0x00\n      keccak256\n      sload\n        /* \"Auctions/_EnglishAuction.sol\":1794:1824  uint refund = bids[msg.sender] */\n      swap1\n      pop\n        /* \"Auctions/_EnglishAuction.sol\":1851:1852  0 */\n      0x00\n        /* \"Auctions/_EnglishAuction.sol\":1842:1848  refund */\n      dup2\n        /* \"Auctions/_EnglishAuction.sol\":1842:1852  refund > 0 */\n      gt\n        /* \"Auctions/_EnglishAuction.sol\":1834:1865  require(refund > 0,\"incorrect\") */\n      tag_79\n      jumpi\n      mload(0x40)\n      0x08c379a000000000000000000000000000000000000000000000000000000000\n      dup2\n      mstore\n      0x04\n      add\n      tag_80\n      swap1\n      tag_81\n      jump\t// in\n    tag_80:\n      mload(0x40)\n      dup1\n      swap2\n      sub\n      swap1\n      revert\n    tag_79:\n        /* \"Auctions/_EnglishAuction.sol\":1895:1896  0 */\n      0x00\n        /* \"Auctions/_EnglishAuction.sol\":1876:1880  bids */\n      0x05\n        /* \"Auctions/_EnglishAuction.sol\":1876:1892  bids[msg.sender] */\n      0x00\n        /* \"Auctions/_EnglishAuction.sol\":1881:1891  msg.sender */\n      caller\n        /* \"Auctions/_EnglishAuction.sol\":1876:1892  bids[msg.sender] */\n      0xffffffffffffffffffffffffffffffffffffffff\n      and\n      0xffffffffffffffffffffffffffffffffffffffff\n      and\n      dup2\n      mstore\n      0x20\n      add\n      swap1\n      dup2\n      mstore\n      0x20\n      add\n      0x00\n      keccak256\n        /* \"Auctions/_EnglishAuction.sol\":1876:1896  bids[msg.sender] = 0 */\n      dup2\n      swap1\n      sstore\n      pop\n        /* \"Auctions/_EnglishAuction.sol\":1914:1924  msg.sender */\n      caller\n        /* \"Auctions/_EnglishAuction.sol\":1906:1934  payable(msg.sender).transfer */\n      0xffffffffffffffffffffffffffffffffffffffff\n      and\n        /* \"Auctions/_EnglishAuction.sol\":1906:1942  payable(msg.sender).transfer(refund) */\n      0x08fc\n        /* \"Auctions/_EnglishAuction.sol\":1935:1941  refund */\n      dup3\n        /* \"Auctions/_EnglishAuction.sol\":1906:1942  payable(msg.sender).transfer(refund) */\n      swap1\n      dup2\n      iszero\n      mul\n      swap1\n      mload(0x40)\n      0x00\n      mload(0x40)\n      dup1\n      dup4\n      sub\n      dup2\n      dup6\n      dup9\n      dup9\n      call\n      swap4\n      pop\n      pop\n      pop\n      pop\n      iszero\n      dup1\n      iszero\n      tag_83\n      jumpi\n      returndatasize\n      0x00\n      dup1\n      returndatacopy\n      revert(0x00, returndatasize)\n    tag_83:\n      pop\n        /* \"Auctions/_EnglishAuction.sol\":1784:1949  {... */\n      pop\n        /* \"Auctions/_EnglishAuction.sol\":1755:1949  function withdraw() external {... */\n      jump\t// out\n        /* \"Auctions/_EnglishAuction.sol\":292:326  mapping(address=>uint) public bids */\n    tag_38:\n      mstore(0x20, 0x05)\n      dup1\n      0x00\n      mstore\n      keccak256(0x00, 0x40)\n      0x00\n      swap2\n      pop\n      swap1\n      pop\n      sload\n      dup2\n      jump\t// out\n        /* \"Auctions/_EnglishAuction.sol\":159:176  uint public endAt */\n    tag_43:\n      sload(0x01)\n      dup2\n      jump\t// out\n        /* \"Auctions/_EnglishAuction.sol\":258:286  address public highestBidder */\n    tag_47:\n      0x04\n      0x00\n      swap1\n      sload\n      swap1\n      0x0100\n      exp\n      swap1\n      div\n      0xffffffffffffffffffffffffffffffffffffffff\n      and\n      dup2\n      jump\t// out\n        /* \"Auctions/_EnglishAuction.sol\":929:1116  function start() external onlySeller {... */\n    tag_52:\n        /* \"Auctions/_EnglishAuction.sol\":687:693  seller */\n      immutable(\"0xceebf77a833b30520287ddd9478ff51abbdffa30aa90a8d655dba0e8a79ce0c1\")\n        /* \"Auctions/_EnglishAuction.sol\":673:693  msg.sender == seller */\n      0xffffffffffffffffffffffffffffffffffffffff\n      and\n        /* \"Auctions/_EnglishAuction.sol\":673:683  msg.sender */\n      caller\n        /* \"Auctions/_EnglishAuction.sol\":673:693  msg.sender == seller */\n      0xffffffffffffffffffffffffffffffffffffffff\n      and\n      eq\n        /* \"Auctions/_EnglishAuction.sol\":665:710  require(msg.sender == seller, \"WHO ARE YOU?\") */\n      tag_85\n      jumpi\n      mload(0x40)\n      0x08c379a000000000000000000000000000000000000000000000000000000000\n      dup2\n      mstore\n      0x04\n      add\n      tag_86\n      swap1\n      tag_87\n      jump\t// in\n    tag_86:\n      mload(0x40)\n      dup1\n      swap2\n      sub\n      swap1\n      revert\n    tag_85:\n        /* \"Auctions/_EnglishAuction.sol\":985:992  started */\n      0x02\n      0x00\n      swap1\n      sload\n      swap1\n      0x0100\n      exp\n      swap1\n      div\n      0xff\n      and\n        /* \"Auctions/_EnglishAuction.sol\":984:992  !started */\n      iszero\n        /* \"Auctions/_EnglishAuction.sol\":976:1010  require(!started,\"ALREADY ON BIH\") */\n      tag_89\n      jumpi\n      mload(0x40)\n      0x08c379a000000000000000000000000000000000000000000000000000000000\n      dup2\n      mstore\n      0x04\n      add\n      tag_90\n      swap1\n      tag_91\n      jump\t// in\n    tag_90:\n      mload(0x40)\n      dup1\n      swap2\n      sub\n      swap1\n      revert\n    tag_89:\n        /* \"Auctions/_EnglishAuction.sol\":1030:1034  true */\n      0x01\n        /* \"Auctions/_EnglishAuction.sol\":1020:1027  started */\n      0x02\n      0x00\n        /* \"Auctions/_EnglishAuction.sol\":1020:1034  started = true */\n      0x0100\n      exp\n      dup2\n      sload\n      dup2\n      0xff\n      mul\n      not\n      and\n      swap1\n      dup4\n      iszero\n      iszero\n      mul\n      or\n      swap1\n      sstore\n      pop\n        /* \"Auctions/_EnglishAuction.sol\":1070:1072  70 */\n      0x46\n        /* \"Auctions/_EnglishAuction.sol\":1052:1067  block.timestamp */\n      timestamp\n        /* \"Auctions/_EnglishAuction.sol\":1052:1072  block.timestamp + 70 */\n      tag_92\n      swap2\n      swap1\n      tag_75\n      jump\t// in\n    tag_92:\n        /* \"Auctions/_EnglishAuction.sol\":1044:1049  endAt */\n      0x01\n        /* \"Auctions/_EnglishAuction.sol\":1044:1072  endAt = block.timestamp + 70 */\n      dup2\n      swap1\n      sstore\n      pop\n        /* \"Auctions/_EnglishAuction.sol\":1087:1109  Start(item,highestBid) */\n      0x26b8c73018ea4e6299b90779c551701c61c7845a0af0f962d555582369819b8e\n        /* \"Auctions/_EnglishAuction.sol\":1093:1097  item */\n      0x00\n        /* \"Auctions/_EnglishAuction.sol\":1098:1108  highestBid */\n      sload(0x03)\n        /* \"Auctions/_EnglishAuction.sol\":1087:1109  Start(item,highestBid) */\n      mload(0x40)\n      tag_93\n      swap3\n      swap2\n      swap1\n      tag_94\n      jump\t// in\n    tag_93:\n      mload(0x40)\n      dup1\n      swap2\n      sub\n      swap1\n      log1\n        /* \"Auctions/_EnglishAuction.sol\":929:1116  function start() external onlySeller {... */\n      jump\t// out\n        /* \"Auctions/_EnglishAuction.sol\":230:252  uint public highestBid */\n    tag_55:\n      sload(0x03)\n      dup2\n      jump\t// out\n        /* \"Auctions/_EnglishAuction.sol\":1446:1750  function end() external hasStarted {... */\n    tag_59:\n        /* \"Auctions/_EnglishAuction.sol\":771:778  started */\n      0x02\n      0x00\n      swap1\n      sload\n      swap1\n      0x0100\n      exp\n      swap1\n      div\n      0xff\n      and\n        /* \"Auctions/_EnglishAuction.sol\":763:802  require(started,\"IT AINT STARTED FOOL\") */\n      tag_96\n      jumpi\n      mload(0x40)\n      0x08c379a000000000000000000000000000000000000000000000000000000000\n      dup2\n      mstore\n      0x04\n      add\n      tag_97\n      swap1\n      tag_68\n      jump\t// in\n    tag_97:\n      mload(0x40)\n      dup1\n      swap2\n      sub\n      swap1\n      revert\n    tag_96:\n        /* \"Auctions/_EnglishAuction.sol\":1500:1505  ended */\n      0x02\n      0x01\n      swap1\n      sload\n      swap1\n      0x0100\n      exp\n      swap1\n      div\n      0xff\n      and\n        /* \"Auctions/_EnglishAuction.sol\":1499:1505  !ended */\n      iszero\n        /* \"Auctions/_EnglishAuction.sol\":1491:1522  require(!ended,\"already ended\") */\n      tag_99\n      jumpi\n      mload(0x40)\n      0x08c379a000000000000000000000000000000000000000000000000000000000\n      dup2\n      mstore\n      0x04\n      add\n      tag_100\n      swap1\n      tag_101\n      jump\t// in\n    tag_100:\n      mload(0x40)\n      dup1\n      swap2\n      sub\n      swap1\n      revert\n    tag_99:\n        /* \"Auctions/_EnglishAuction.sol\":1559:1564  endAt */\n      sload(0x01)\n        /* \"Auctions/_EnglishAuction.sol\":1540:1555  block.timestamp */\n      timestamp\n        /* \"Auctions/_EnglishAuction.sol\":1540:1564  block.timestamp >= endAt */\n      lt\n      iszero\n        /* \"Auctions/_EnglishAuction.sol\":1532:1584  require(block.timestamp >= endAt,\"CAN'T STOP MANNY\") */\n      tag_102\n      jumpi\n      mload(0x40)\n      0x08c379a000000000000000000000000000000000000000000000000000000000\n      dup2\n      mstore\n      0x04\n      add\n      tag_103\n      swap1\n      tag_104\n      jump\t// in\n    tag_103:\n      mload(0x40)\n      dup1\n      swap2\n      sub\n      swap1\n      revert\n    tag_102:\n        /* \"Auctions/_EnglishAuction.sol\":1602:1606  true */\n      0x01\n        /* \"Auctions/_EnglishAuction.sol\":1594:1599  ended */\n      0x02\n      0x01\n        /* \"Auctions/_EnglishAuction.sol\":1594:1606  ended = true */\n      0x0100\n      exp\n      dup2\n      sload\n      dup2\n      0xff\n      mul\n      not\n      and\n      swap1\n      dup4\n      iszero\n      iszero\n      mul\n      or\n      swap1\n      sstore\n      pop\n        /* \"Auctions/_EnglishAuction.sol\":1645:1646  0 */\n      0x00\n        /* \"Auctions/_EnglishAuction.sol\":1620:1647  highestBidder != address(0) */\n      0xffffffffffffffffffffffffffffffffffffffff\n      and\n        /* \"Auctions/_EnglishAuction.sol\":1620:1633  highestBidder */\n      0x04\n      0x00\n      swap1\n      sload\n      swap1\n      0x0100\n      exp\n      swap1\n      div\n      0xffffffffffffffffffffffffffffffffffffffff\n      and\n        /* \"Auctions/_EnglishAuction.sol\":1620:1647  highestBidder != address(0) */\n      0xffffffffffffffffffffffffffffffffffffffff\n      and\n      eq\n        /* \"Auctions/_EnglishAuction.sol\":1616:1700  if (highestBidder != address(0)){... */\n      tag_105\n      jumpi\n        /* \"Auctions/_EnglishAuction.sol\":1662:1668  seller */\n      immutable(\"0xceebf77a833b30520287ddd9478ff51abbdffa30aa90a8d655dba0e8a79ce0c1\")\n        /* \"Auctions/_EnglishAuction.sol\":1662:1677  seller.transfer */\n      0xffffffffffffffffffffffffffffffffffffffff\n      and\n        /* \"Auctions/_EnglishAuction.sol\":1662:1689  seller.transfer(highestBid) */\n      0x08fc\n        /* \"Auctions/_EnglishAuction.sol\":1678:1688  highestBid */\n      sload(0x03)\n        /* \"Auctions/_EnglishAuction.sol\":1662:1689  seller.transfer(highestBid) */\n      swap1\n      dup2\n      iszero\n      mul\n      swap1\n      mload(0x40)\n      0x00\n      mload(0x40)\n      dup1\n      dup4\n      sub\n      dup2\n      dup6\n      dup9\n      dup9\n      call\n      swap4\n      pop\n      pop\n      pop\n      pop\n      iszero\n      dup1\n      iszero\n      tag_107\n      jumpi\n      returndatasize\n      0x00\n      dup1\n      returndatacopy\n      revert(0x00, returndatasize)\n    tag_107:\n      pop\n        /* \"Auctions/_EnglishAuction.sol\":1616:1700  if (highestBidder != address(0)){... */\n    tag_105:\n        /* \"Auctions/_EnglishAuction.sol\":1714:1743  End(highestBidder,highestBid) */\n      0x7d7570b046e5ead3a4f3fbc9fa2445113625a1e79823776146316bafed6b8cc5\n        /* \"Auctions/_EnglishAuction.sol\":1718:1731  highestBidder */\n      0x04\n      0x00\n      swap1\n      sload\n      swap1\n      0x0100\n      exp\n      swap1\n      div\n      0xffffffffffffffffffffffffffffffffffffffff\n      and\n        /* \"Auctions/_EnglishAuction.sol\":1732:1742  highestBid */\n      sload(0x03)\n        /* \"Auctions/_EnglishAuction.sol\":1714:1743  End(highestBidder,highestBid) */\n      mload(0x40)\n      tag_108\n      swap3\n      swap2\n      swap1\n      tag_77\n      jump\t// in\n    tag_108:\n      mload(0x40)\n      dup1\n      swap2\n      sub\n      swap1\n      log1\n        /* \"Auctions/_EnglishAuction.sol\":1446:1750  function end() external hasStarted {... */\n      jump\t// out\n        /* \"Auctions/_EnglishAuction.sol\":90:108  string public item */\n    tag_62:\n      0x00\n      dup1\n      sload\n      tag_109\n      swap1\n      tag_110\n      jump\t// in\n    tag_109:\n      dup1\n      0x1f\n      add\n      0x20\n      dup1\n      swap2\n      div\n      mul\n      0x20\n      add\n      mload(0x40)\n      swap1\n      dup2\n      add\n      0x40\n      mstore\n      dup1\n      swap3\n      swap2\n      swap1\n      dup2\n      dup2\n      mstore\n      0x20\n      add\n      dup3\n      dup1\n      sload\n      tag_111\n      swap1\n      tag_110\n      jump\t// in\n    tag_111:\n      dup1\n      iszero\n      tag_112\n      jumpi\n      dup1\n      0x1f\n      lt\n      tag_113\n      jumpi\n      0x0100\n      dup1\n      dup4\n      sload\n      div\n      mul\n      dup4\n      mstore\n      swap2\n      0x20\n      add\n      swap2\n      jump(tag_112)\n    tag_113:\n      dup3\n      add\n      swap2\n      swap1\n      0x00\n      mstore\n      keccak256(0x00, 0x20)\n      swap1\n    tag_114:\n      dup2\n      sload\n      dup2\n      mstore\n      swap1\n      0x01\n      add\n      swap1\n      0x20\n      add\n      dup1\n      dup4\n      gt\n      tag_114\n      jumpi\n      dup3\n      swap1\n      sub\n      0x1f\n      and\n      dup3\n      add\n      swap2\n    tag_112:\n      pop\n      pop\n      pop\n      pop\n      pop\n      dup2\n      jump\t// out\n        /* \"#utility.yul\":7:146   */\n    tag_116:\n        /* \"#utility.yul\":53:58   */\n      0x00\n        /* \"#utility.yul\":91:97   */\n      dup2\n        /* \"#utility.yul\":78:98   */\n      calldataload\n        /* \"#utility.yul\":69:98   */\n      swap1\n      pop\n        /* \"#utility.yul\":107:140   */\n      tag_118\n        /* \"#utility.yul\":134:139   */\n      dup2\n        /* \"#utility.yul\":107:140   */\n      tag_119\n      jump\t// in\n    tag_118:\n        /* \"#utility.yul\":7:146   */\n      swap3\n      swap2\n      pop\n      pop\n      jump\t// out\n        /* \"#utility.yul\":152:481   */\n    tag_37:\n        /* \"#utility.yul\":211:217   */\n      0x00\n        /* \"#utility.yul\":260:262   */\n      0x20\n        /* \"#utility.yul\":248:257   */\n      dup3\n        /* \"#utility.yul\":239:246   */\n      dup5\n        /* \"#utility.yul\":235:258   */\n      sub\n        /* \"#utility.yul\":231:263   */\n      slt\n        /* \"#utility.yul\":228:347   */\n      iszero\n      tag_121\n      jumpi\n        /* \"#utility.yul\":266:345   */\n      tag_122\n      tag_123\n      jump\t// in\n    tag_122:\n        /* \"#utility.yul\":228:347   */\n    tag_121:\n        /* \"#utility.yul\":386:387   */\n      0x00\n        /* \"#utility.yul\":411:464   */\n      tag_124\n        /* \"#utility.yul\":456:463   */\n      dup5\n        /* \"#utility.yul\":447:453   */\n      dup3\n        /* \"#utility.yul\":436:445   */\n      dup6\n        /* \"#utility.yul\":432:454   */\n      add\n        /* \"#utility.yul\":411:464   */\n      tag_116\n      jump\t// in\n    tag_124:\n        /* \"#utility.yul\":401:464   */\n      swap2\n      pop\n        /* \"#utility.yul\":357:474   */\n      pop\n        /* \"#utility.yul\":152:481   */\n      swap3\n      swap2\n      pop\n      pop\n      jump\t// out\n        /* \"#utility.yul\":487:629   */\n    tag_125:\n        /* \"#utility.yul\":590:622   */\n      tag_127\n        /* \"#utility.yul\":616:621   */\n      dup2\n        /* \"#utility.yul\":590:622   */\n      tag_128\n      jump\t// in\n    tag_127:\n        /* \"#utility.yul\":585:588   */\n      dup3\n        /* \"#utility.yul\":578:623   */\n      mstore\n        /* \"#utility.yul\":487:629   */\n      pop\n      pop\n      jump\t// out\n        /* \"#utility.yul\":635:753   */\n    tag_129:\n        /* \"#utility.yul\":722:746   */\n      tag_131\n        /* \"#utility.yul\":740:745   */\n      dup2\n        /* \"#utility.yul\":722:746   */\n      tag_132\n      jump\t// in\n    tag_131:\n        /* \"#utility.yul\":717:720   */\n      dup3\n        /* \"#utility.yul\":710:747   */\n      mstore\n        /* \"#utility.yul\":635:753   */\n      pop\n      pop\n      jump\t// out\n        /* \"#utility.yul\":759:868   */\n    tag_133:\n        /* \"#utility.yul\":840:861   */\n      tag_135\n        /* \"#utility.yul\":855:860   */\n      dup2\n        /* \"#utility.yul\":840:861   */\n      tag_136\n      jump\t// in\n    tag_135:\n        /* \"#utility.yul\":835:838   */\n      dup3\n        /* \"#utility.yul\":828:862   */\n      mstore\n        /* \"#utility.yul\":759:868   */\n      pop\n      pop\n      jump\t// out\n        /* \"#utility.yul\":874:1238   */\n    tag_137:\n        /* \"#utility.yul\":962:965   */\n      0x00\n        /* \"#utility.yul\":990:1029   */\n      tag_139\n        /* \"#utility.yul\":1023:1028   */\n      dup3\n        /* \"#utility.yul\":990:1029   */\n      tag_140\n      jump\t// in\n    tag_139:\n        /* \"#utility.yul\":1045:1116   */\n      tag_141\n        /* \"#utility.yul\":1109:1115   */\n      dup2\n        /* \"#utility.yul\":1104:1107   */\n      dup6\n        /* \"#utility.yul\":1045:1116   */\n      tag_142\n      jump\t// in\n    tag_141:\n        /* \"#utility.yul\":1038:1116   */\n      swap4\n      pop\n        /* \"#utility.yul\":1125:1177   */\n      tag_143\n        /* \"#utility.yul\":1170:1176   */\n      dup2\n        /* \"#utility.yul\":1165:1168   */\n      dup6\n        /* \"#utility.yul\":1158:1162   */\n      0x20\n        /* \"#utility.yul\":1151:1156   */\n      dup7\n        /* \"#utility.yul\":1147:1163   */\n      add\n        /* \"#utility.yul\":1125:1177   */\n      tag_144\n      jump\t// in\n    tag_143:\n        /* \"#utility.yul\":1202:1231   */\n      tag_145\n        /* \"#utility.yul\":1224:1230   */\n      dup2\n        /* \"#utility.yul\":1202:1231   */\n      tag_146\n      jump\t// in\n    tag_145:\n        /* \"#utility.yul\":1197:1200   */\n      dup5\n        /* \"#utility.yul\":1193:1232   */\n      add\n        /* \"#utility.yul\":1186:1232   */\n      swap2\n      pop\n        /* \"#utility.yul\":966:1238   */\n      pop\n        /* \"#utility.yul\":874:1238   */\n      swap3\n      swap2\n      pop\n      pop\n      jump\t// out\n        /* \"#utility.yul\":1268:2070   */\n    tag_147:\n        /* \"#utility.yul\":1353:1356   */\n      0x00\n        /* \"#utility.yul\":1390:1395   */\n      dup2\n        /* \"#utility.yul\":1384:1396   */\n      sload\n        /* \"#utility.yul\":1419:1455   */\n      tag_149\n        /* \"#utility.yul\":1445:1454   */\n      dup2\n        /* \"#utility.yul\":1419:1455   */\n      tag_110\n      jump\t// in\n    tag_149:\n        /* \"#utility.yul\":1471:1542   */\n      tag_150\n        /* \"#utility.yul\":1535:1541   */\n      dup2\n        /* \"#utility.yul\":1530:1533   */\n      dup7\n        /* \"#utility.yul\":1471:1542   */\n      tag_142\n      jump\t// in\n    tag_150:\n        /* \"#utility.yul\":1464:1542   */\n      swap5\n      pop\n        /* \"#utility.yul\":1573:1574   */\n      0x01\n        /* \"#utility.yul\":1562:1571   */\n      dup3\n        /* \"#utility.yul\":1558:1575   */\n      and\n        /* \"#utility.yul\":1589:1590   */\n      0x00\n        /* \"#utility.yul\":1584:1719   */\n      dup2\n      eq\n      tag_152\n      jumpi\n        /* \"#utility.yul\":1733:1734   */\n      0x01\n        /* \"#utility.yul\":1728:2064   */\n      dup2\n      eq\n      tag_153\n      jumpi\n        /* \"#utility.yul\":1551:2064   */\n      jump(tag_151)\n        /* \"#utility.yul\":1584:1719   */\n    tag_152:\n        /* \"#utility.yul\":1668:1672   */\n      0xff\n        /* \"#utility.yul\":1664:1673   */\n      not\n        /* \"#utility.yul\":1653:1662   */\n      dup4\n        /* \"#utility.yul\":1649:1674   */\n      and\n        /* \"#utility.yul\":1644:1647   */\n      dup7\n        /* \"#utility.yul\":1637:1675   */\n      mstore\n        /* \"#utility.yul\":1704:1708   */\n      0x20\n        /* \"#utility.yul\":1699:1702   */\n      dup7\n        /* \"#utility.yul\":1695:1709   */\n      add\n        /* \"#utility.yul\":1688:1709   */\n      swap4\n      pop\n        /* \"#utility.yul\":1584:1719   */\n      jump(tag_151)\n        /* \"#utility.yul\":1728:2064   */\n    tag_153:\n        /* \"#utility.yul\":1795:1833   */\n      tag_154\n        /* \"#utility.yul\":1827:1832   */\n      dup6\n        /* \"#utility.yul\":1795:1833   */\n      tag_155\n      jump\t// in\n    tag_154:\n        /* \"#utility.yul\":1855:1856   */\n      0x00\n        /* \"#utility.yul\":1869:2023   */\n    tag_156:\n        /* \"#utility.yul\":1883:1889   */\n      dup4\n        /* \"#utility.yul\":1880:1881   */\n      dup2\n        /* \"#utility.yul\":1877:1890   */\n      lt\n        /* \"#utility.yul\":1869:2023   */\n      iszero\n      tag_158\n      jumpi\n        /* \"#utility.yul\":1957:1964   */\n      dup2\n        /* \"#utility.yul\":1951:1965   */\n      sload\n        /* \"#utility.yul\":1947:1948   */\n      dup2\n        /* \"#utility.yul\":1942:1945   */\n      dup10\n        /* \"#utility.yul\":1938:1949   */\n      add\n        /* \"#utility.yul\":1931:1966   */\n      mstore\n        /* \"#utility.yul\":2007:2008   */\n      0x01\n        /* \"#utility.yul\":1998:2005   */\n      dup3\n        /* \"#utility.yul\":1994:2009   */\n      add\n        /* \"#utility.yul\":1983:2009   */\n      swap2\n      pop\n        /* \"#utility.yul\":1905:1909   */\n      0x20\n        /* \"#utility.yul\":1902:1903   */\n      dup2\n        /* \"#utility.yul\":1898:1910   */\n      add\n        /* \"#utility.yul\":1893:1910   */\n      swap1\n      pop\n        /* \"#utility.yul\":1869:2023   */\n      jump(tag_156)\n    tag_158:\n        /* \"#utility.yul\":2052:2053   */\n      dup1\n        /* \"#utility.yul\":2047:2050   */\n      dup9\n        /* \"#utility.yul\":2043:2054   */\n      add\n        /* \"#utility.yul\":2036:2054   */\n      swap6\n      pop\n        /* \"#utility.yul\":1735:2064   */\n      pop\n      pop\n        /* \"#utility.yul\":1551:2064   */\n    tag_151:\n      pop\n        /* \"#utility.yul\":1357:2070   */\n      pop\n      pop\n        /* \"#utility.yul\":1268:2070   */\n      swap3\n      swap2\n      pop\n      pop\n      jump\t// out\n        /* \"#utility.yul\":2076:2442   */\n    tag_159:\n        /* \"#utility.yul\":2218:2221   */\n      0x00\n        /* \"#utility.yul\":2239:2306   */\n      tag_161\n        /* \"#utility.yul\":2303:2305   */\n      0x10\n        /* \"#utility.yul\":2298:2301   */\n      dup4\n        /* \"#utility.yul\":2239:2306   */\n      tag_142\n      jump\t// in\n    tag_161:\n        /* \"#utility.yul\":2232:2306   */\n      swap2\n      pop\n        /* \"#utility.yul\":2315:2408   */\n      tag_162\n        /* \"#utility.yul\":2404:2407   */\n      dup3\n        /* \"#utility.yul\":2315:2408   */\n      tag_163\n      jump\t// in\n    tag_162:\n        /* \"#utility.yul\":2433:2435   */\n      0x20\n        /* \"#utility.yul\":2428:2431   */\n      dup3\n        /* \"#utility.yul\":2424:2436   */\n      add\n        /* \"#utility.yul\":2417:2436   */\n      swap1\n      pop\n        /* \"#utility.yul\":2076:2442   */\n      swap2\n      swap1\n      pop\n      jump\t// out\n        /* \"#utility.yul\":2448:2814   */\n    tag_164:\n        /* \"#utility.yul\":2590:2593   */\n      0x00\n        /* \"#utility.yul\":2611:2678   */\n      tag_166\n        /* \"#utility.yul\":2675:2677   */\n      0x0e\n        /* \"#utility.yul\":2670:2673   */\n      dup4\n        /* \"#utility.yul\":2611:2678   */\n      tag_142\n      jump\t// in\n    tag_166:\n        /* \"#utility.yul\":2604:2678   */\n      swap2\n      pop\n        /* \"#utility.yul\":2687:2780   */\n      tag_167\n        /* \"#utility.yul\":2776:2779   */\n      dup3\n        /* \"#utility.yul\":2687:2780   */\n      tag_168\n      jump\t// in\n    tag_167:\n        /* \"#utility.yul\":2805:2807   */\n      0x20\n        /* \"#utility.yul\":2800:2803   */\n      dup3\n        /* \"#utility.yul\":2796:2808   */\n      add\n        /* \"#utility.yul\":2789:2808   */\n      swap1\n      pop\n        /* \"#utility.yul\":2448:2814   */\n      swap2\n      swap1\n      pop\n      jump\t// out\n        /* \"#utility.yul\":2820:3186   */\n    tag_169:\n        /* \"#utility.yul\":2962:2965   */\n      0x00\n        /* \"#utility.yul\":2983:3050   */\n      tag_171\n        /* \"#utility.yul\":3047:3049   */\n      0x14\n        /* \"#utility.yul\":3042:3045   */\n      dup4\n        /* \"#utility.yul\":2983:3050   */\n      tag_142\n      jump\t// in\n    tag_171:\n        /* \"#utility.yul\":2976:3050   */\n      swap2\n      pop\n        /* \"#utility.yul\":3059:3152   */\n      tag_172\n        /* \"#utility.yul\":3148:3151   */\n      dup3\n        /* \"#utility.yul\":3059:3152   */\n      tag_173\n      jump\t// in\n    tag_172:\n        /* \"#utility.yul\":3177:3179   */\n      0x20\n        /* \"#utility.yul\":3172:3175   */\n      dup3\n        /* \"#utility.yul\":3168:3180   */\n      add\n        /* \"#utility.yul\":3161:3180   */\n      swap1\n      pop\n        /* \"#utility.yul\":2820:3186   */\n      swap2\n      swap1\n      pop\n      jump\t// out\n        /* \"#utility.yul\":3192:3558   */\n    tag_174:\n        /* \"#utility.yul\":3334:3337   */\n      0x00\n        /* \"#utility.yul\":3355:3422   */\n      tag_176\n        /* \"#utility.yul\":3419:3421   */\n      0x0c\n        /* \"#utility.yul\":3414:3417   */\n      dup4\n        /* \"#utility.yul\":3355:3422   */\n      tag_142\n      jump\t// in\n    tag_176:\n        /* \"#utility.yul\":3348:3422   */\n      swap2\n      pop\n        /* \"#utility.yul\":3431:3524   */\n      tag_177\n        /* \"#utility.yul\":3520:3523   */\n      dup3\n        /* \"#utility.yul\":3431:3524   */\n      tag_178\n      jump\t// in\n    tag_177:\n        /* \"#utility.yul\":3549:3551   */\n      0x20\n        /* \"#utility.yul\":3544:3547   */\n      dup3\n        /* \"#utility.yul\":3540:3552   */\n      add\n        /* \"#utility.yul\":3533:3552   */\n      swap1\n      pop\n        /* \"#utility.yul\":3192:3558   */\n      swap2\n      swap1\n      pop\n      jump\t// out\n        /* \"#utility.yul\":3564:3929   */\n    tag_179:\n        /* \"#utility.yul\":3706:3709   */\n      0x00\n        /* \"#utility.yul\":3727:3793   */\n      tag_181\n        /* \"#utility.yul\":3791:3792   */\n      0x09\n        /* \"#utility.yul\":3786:3789   */\n      dup4\n        /* \"#utility.yul\":3727:3793   */\n      tag_142\n      jump\t// in\n    tag_181:\n        /* \"#utility.yul\":3720:3793   */\n      swap2\n      pop\n        /* \"#utility.yul\":3802:3895   */\n      tag_182\n        /* \"#utility.yul\":3891:3894   */\n      dup3\n        /* \"#utility.yul\":3802:3895   */\n      tag_183\n      jump\t// in\n    tag_182:\n        /* \"#utility.yul\":3920:3922   */\n      0x20\n        /* \"#utility.yul\":3915:3918   */\n      dup3\n        /* \"#utility.yul\":3911:3923   */\n      add\n        /* \"#utility.yul\":3904:3923   */\n      swap1\n      pop\n        /* \"#utility.yul\":3564:3929   */\n      swap2\n      swap1\n      pop\n      jump\t// out\n        /* \"#utility.yul\":3935:4301   */\n    tag_184:\n        /* \"#utility.yul\":4077:4080   */\n      0x00\n        /* \"#utility.yul\":4098:4165   */\n      tag_186\n        /* \"#utility.yul\":4162:4164   */\n      0x15\n        /* \"#utility.yul\":4157:4160   */\n      dup4\n        /* \"#utility.yul\":4098:4165   */\n      tag_142\n      jump\t// in\n    tag_186:\n        /* \"#utility.yul\":4091:4165   */\n      swap2\n      pop\n        /* \"#utility.yul\":4174:4267   */\n      tag_187\n        /* \"#utility.yul\":4263:4266   */\n      dup3\n        /* \"#utility.yul\":4174:4267   */\n      tag_188\n      jump\t// in\n    tag_187:\n        /* \"#utility.yul\":4292:4294   */\n      0x20\n        /* \"#utility.yul\":4287:4290   */\n      dup3\n        /* \"#utility.yul\":4283:4295   */\n      add\n        /* \"#utility.yul\":4276:4295   */\n      swap1\n      pop\n        /* \"#utility.yul\":3935:4301   */\n      swap2\n      swap1\n      pop\n      jump\t// out\n        /* \"#utility.yul\":4307:4673   */\n    tag_189:\n        /* \"#utility.yul\":4449:4452   */\n      0x00\n        /* \"#utility.yul\":4470:4537   */\n      tag_191\n        /* \"#utility.yul\":4534:4536   */\n      0x0d\n        /* \"#utility.yul\":4529:4532   */\n      dup4\n        /* \"#utility.yul\":4470:4537   */\n      tag_142\n      jump\t// in\n    tag_191:\n        /* \"#utility.yul\":4463:4537   */\n      swap2\n      pop\n        /* \"#utility.yul\":4546:4639   */\n      tag_192\n        /* \"#utility.yul\":4635:4638   */\n      dup3\n        /* \"#utility.yul\":4546:4639   */\n      tag_193\n      jump\t// in\n    tag_192:\n        /* \"#utility.yul\":4664:4666   */\n      0x20\n        /* \"#utility.yul\":4659:4662   */\n      dup3\n        /* \"#utility.yul\":4655:4667   */\n      add\n        /* \"#utility.yul\":4648:4667   */\n      swap1\n      pop\n        /* \"#utility.yul\":4307:4673   */\n      swap2\n      swap1\n      pop\n      jump\t// out\n        /* \"#utility.yul\":4679:4797   */\n    tag_194:\n        /* \"#utility.yul\":4766:4790   */\n      tag_196\n        /* \"#utility.yul\":4784:4789   */\n      dup2\n        /* \"#utility.yul\":4766:4790   */\n      tag_197\n      jump\t// in\n    tag_196:\n        /* \"#utility.yul\":4761:4764   */\n      dup3\n        /* \"#utility.yul\":4754:4791   */\n      mstore\n        /* \"#utility.yul\":4679:4797   */\n      pop\n      pop\n      jump\t// out\n        /* \"#utility.yul\":4803:5025   */\n    tag_49:\n        /* \"#utility.yul\":4896:4900   */\n      0x00\n        /* \"#utility.yul\":4934:4936   */\n      0x20\n        /* \"#utility.yul\":4923:4932   */\n      dup3\n        /* \"#utility.yul\":4919:4937   */\n      add\n        /* \"#utility.yul\":4911:4937   */\n      swap1\n      pop\n        /* \"#utility.yul\":4947:5018   */\n      tag_199\n        /* \"#utility.yul\":5015:5016   */\n      0x00\n        /* \"#utility.yul\":5004:5013   */\n      dup4\n        /* \"#utility.yul\":5000:5017   */\n      add\n        /* \"#utility.yul\":4991:4997   */\n      dup5\n        /* \"#utility.yul\":4947:5018   */\n      tag_129\n      jump\t// in\n    tag_199:\n        /* \"#utility.yul\":4803:5025   */\n      swap3\n      swap2\n      pop\n      pop\n      jump\t// out\n        /* \"#utility.yul\":5031:5285   */\n    tag_19:\n        /* \"#utility.yul\":5140:5144   */\n      0x00\n        /* \"#utility.yul\":5178:5180   */\n      0x20\n        /* \"#utility.yul\":5167:5176   */\n      dup3\n        /* \"#utility.yul\":5163:5181   */\n      add\n        /* \"#utility.yul\":5155:5181   */\n      swap1\n      pop\n        /* \"#utility.yul\":5191:5278   */\n      tag_201\n        /* \"#utility.yul\":5275:5276   */\n      0x00\n        /* \"#utility.yul\":5264:5273   */\n      dup4\n        /* \"#utility.yul\":5260:5277   */\n      add\n        /* \"#utility.yul\":5251:5257   */\n      dup5\n        /* \"#utility.yul\":5191:5278   */\n      tag_125\n      jump\t// in\n    tag_201:\n        /* \"#utility.yul\":5031:5285   */\n      swap3\n      swap2\n      pop\n      pop\n      jump\t// out\n        /* \"#utility.yul\":5291:5623   */\n    tag_77:\n        /* \"#utility.yul\":5412:5416   */\n      0x00\n        /* \"#utility.yul\":5450:5452   */\n      0x40\n        /* \"#utility.yul\":5439:5448   */\n      dup3\n        /* \"#utility.yul\":5435:5453   */\n      add\n        /* \"#utility.yul\":5427:5453   */\n      swap1\n      pop\n        /* \"#utility.yul\":5463:5534   */\n      tag_203\n        /* \"#utility.yul\":5531:5532   */\n      0x00\n        /* \"#utility.yul\":5520:5529   */\n      dup4\n        /* \"#utility.yul\":5516:5533   */\n      add\n        /* \"#utility.yul\":5507:5513   */\n      dup6\n        /* \"#utility.yul\":5463:5534   */\n      tag_129\n      jump\t// in\n    tag_203:\n        /* \"#utility.yul\":5544:5616   */\n      tag_204\n        /* \"#utility.yul\":5612:5614   */\n      0x20\n        /* \"#utility.yul\":5601:5610   */\n      dup4\n        /* \"#utility.yul\":5597:5615   */\n      add\n        /* \"#utility.yul\":5588:5594   */\n      dup5\n        /* \"#utility.yul\":5544:5616   */\n      tag_194\n      jump\t// in\n    tag_204:\n        /* \"#utility.yul\":5291:5623   */\n      swap4\n      swap3\n      pop\n      pop\n      pop\n      jump\t// out\n        /* \"#utility.yul\":5629:5839   */\n    tag_24:\n        /* \"#utility.yul\":5716:5720   */\n      0x00\n        /* \"#utility.yul\":5754:5756   */\n      0x20\n        /* \"#utility.yul\":5743:5752   */\n      dup3\n        /* \"#utility.yul\":5739:5757   */\n      add\n        /* \"#utility.yul\":5731:5757   */\n      swap1\n      pop\n        /* \"#utility.yul\":5767:5832   */\n      tag_206\n        /* \"#utility.yul\":5829:5830   */\n      0x00\n        /* \"#utility.yul\":5818:5827   */\n      dup4\n        /* \"#utility.yul\":5814:5831   */\n      add\n        /* \"#utility.yul\":5805:5811   */\n      dup5\n        /* \"#utility.yul\":5767:5832   */\n      tag_133\n      jump\t// in\n    tag_206:\n        /* \"#utility.yul\":5629:5839   */\n      swap3\n      swap2\n      pop\n      pop\n      jump\t// out\n        /* \"#utility.yul\":5845:6158   */\n    tag_64:\n        /* \"#utility.yul\":5958:5962   */\n      0x00\n        /* \"#utility.yul\":5996:5998   */\n      0x20\n        /* \"#utility.yul\":5985:5994   */\n      dup3\n        /* \"#utility.yul\":5981:5999   */\n      add\n        /* \"#utility.yul\":5973:5999   */\n      swap1\n      pop\n        /* \"#utility.yul\":6045:6054   */\n      dup2\n        /* \"#utility.yul\":6039:6043   */\n      dup2\n        /* \"#utility.yul\":6035:6055   */\n      sub\n        /* \"#utility.yul\":6031:6032   */\n      0x00\n        /* \"#utility.yul\":6020:6029   */\n      dup4\n        /* \"#utility.yul\":6016:6033   */\n      add\n        /* \"#utility.yul\":6009:6056   */\n      mstore\n        /* \"#utility.yul\":6073:6151   */\n      tag_208\n        /* \"#utility.yul\":6146:6150   */\n      dup2\n        /* \"#utility.yul\":6137:6143   */\n      dup5\n        /* \"#utility.yul\":6073:6151   */\n      tag_137\n      jump\t// in\n    tag_208:\n        /* \"#utility.yul\":6065:6151   */\n      swap1\n      pop\n        /* \"#utility.yul\":5845:6158   */\n      swap3\n      swap2\n      pop\n      pop\n      jump\t// out\n        /* \"#utility.yul\":6164:6581   */\n    tag_94:\n        /* \"#utility.yul\":6302:6306   */\n      0x00\n        /* \"#utility.yul\":6340:6342   */\n      0x40\n        /* \"#utility.yul\":6329:6338   */\n      dup3\n        /* \"#utility.yul\":6325:6343   */\n      add\n        /* \"#utility.yul\":6317:6343   */\n      swap1\n      pop\n        /* \"#utility.yul\":6389:6398   */\n      dup2\n        /* \"#utility.yul\":6383:6387   */\n      dup2\n        /* \"#utility.yul\":6379:6399   */\n      sub\n        /* \"#utility.yul\":6375:6376   */\n      0x00\n        /* \"#utility.yul\":6364:6373   */\n      dup4\n        /* \"#utility.yul\":6360:6377   */\n      add\n        /* \"#utility.yul\":6353:6400   */\n      mstore\n        /* \"#utility.yul\":6417:6492   */\n      tag_210\n        /* \"#utility.yul\":6487:6491   */\n      dup2\n        /* \"#utility.yul\":6478:6484   */\n      dup6\n        /* \"#utility.yul\":6417:6492   */\n      tag_147\n      jump\t// in\n    tag_210:\n        /* \"#utility.yul\":6409:6492   */\n      swap1\n      pop\n        /* \"#utility.yul\":6502:6574   */\n      tag_211\n        /* \"#utility.yul\":6570:6572   */\n      0x20\n        /* \"#utility.yul\":6559:6568   */\n      dup4\n        /* \"#utility.yul\":6555:6573   */\n      add\n        /* \"#utility.yul\":6546:6552   */\n      dup5\n        /* \"#utility.yul\":6502:6574   */\n      tag_194\n      jump\t// in\n    tag_211:\n        /* \"#utility.yul\":6164:6581   */\n      swap4\n      swap3\n      pop\n      pop\n      pop\n      jump\t// out\n        /* \"#utility.yul\":6587:7006   */\n    tag_104:\n        /* \"#utility.yul\":6753:6757   */\n      0x00\n        /* \"#utility.yul\":6791:6793   */\n      0x20\n        /* \"#utility.yul\":6780:6789   */\n      dup3\n        /* \"#utility.yul\":6776:6794   */\n      add\n        /* \"#utility.yul\":6768:6794   */\n      swap1\n      pop\n        /* \"#utility.yul\":6840:6849   */\n      dup2\n        /* \"#utility.yul\":6834:6838   */\n      dup2\n        /* \"#utility.yul\":6830:6850   */\n      sub\n        /* \"#utility.yul\":6826:6827   */\n      0x00\n        /* \"#utility.yul\":6815:6824   */\n      dup4\n        /* \"#utility.yul\":6811:6828   */\n      add\n        /* \"#utility.yul\":6804:6851   */\n      mstore\n        /* \"#utility.yul\":6868:6999   */\n      tag_213\n        /* \"#utility.yul\":6994:6998   */\n      dup2\n        /* \"#utility.yul\":6868:6999   */\n      tag_159\n      jump\t// in\n    tag_213:\n        /* \"#utility.yul\":6860:6999   */\n      swap1\n      pop\n        /* \"#utility.yul\":6587:7006   */\n      swap2\n      swap1\n      pop\n      jump\t// out\n        /* \"#utility.yul\":7012:7431   */\n    tag_91:\n        /* \"#utility.yul\":7178:7182   */\n      0x00\n        /* \"#utility.yul\":7216:7218   */\n      0x20\n        /* \"#utility.yul\":7205:7214   */\n      dup3\n        /* \"#utility.yul\":7201:7219   */\n      add\n        /* \"#utility.yul\":7193:7219   */\n      swap1\n      pop\n        /* \"#utility.yul\":7265:7274   */\n      dup2\n        /* \"#utility.yul\":7259:7263   */\n      dup2\n        /* \"#utility.yul\":7255:7275   */\n      sub\n        /* \"#utility.yul\":7251:7252   */\n      0x00\n        /* \"#utility.yul\":7240:7249   */\n      dup4\n        /* \"#utility.yul\":7236:7253   */\n      add\n        /* \"#utility.yul\":7229:7276   */\n      mstore\n        /* \"#utility.yul\":7293:7424   */\n      tag_215\n        /* \"#utility.yul\":7419:7423   */\n      dup2\n        /* \"#utility.yul\":7293:7424   */\n      tag_164\n      jump\t// in\n    tag_215:\n        /* \"#utility.yul\":7285:7424   */\n      swap1\n      pop\n        /* \"#utility.yul\":7012:7431   */\n      swap2\n      swap1\n      pop\n      jump\t// out\n        /* \"#utility.yul\":7437:7856   */\n    tag_68:\n        /* \"#utility.yul\":7603:7607   */\n      0x00\n        /* \"#utility.yul\":7641:7643   */\n      0x20\n        /* \"#utility.yul\":7630:7639   */\n      dup3\n        /* \"#utility.yul\":7626:7644   */\n      add\n        /* \"#utility.yul\":7618:7644   */\n      swap1\n      pop\n        /* \"#utility.yul\":7690:7699   */\n      dup2\n        /* \"#utility.yul\":7684:7688   */\n      dup2\n        /* \"#utility.yul\":7680:7700   */\n      sub\n        /* \"#utility.yul\":7676:7677   */\n      0x00\n        /* \"#utility.yul\":7665:7674   */\n      dup4\n        /* \"#utility.yul\":7661:7678   */\n      add\n        /* \"#utility.yul\":7654:7701   */\n      mstore\n        /* \"#utility.yul\":7718:7849   */\n      tag_217\n        /* \"#utility.yul\":7844:7848   */\n      dup2\n        /* \"#utility.yul\":7718:7849   */\n      tag_169\n      jump\t// in\n    tag_217:\n        /* \"#utility.yul\":7710:7849   */\n      swap1\n      pop\n        /* \"#utility.yul\":7437:7856   */\n      swap2\n      swap1\n      pop\n      jump\t// out\n        /* \"#utility.yul\":7862:8281   */\n    tag_87:\n        /* \"#utility.yul\":8028:8032   */\n      0x00\n        /* \"#utility.yul\":8066:8068   */\n      0x20\n        /* \"#utility.yul\":8055:8064   */\n      dup3\n        /* \"#utility.yul\":8051:8069   */\n      add\n        /* \"#utility.yul\":8043:8069   */\n      swap1\n      pop\n        /* \"#utility.yul\":8115:8124   */\n      dup2\n        /* \"#utility.yul\":8109:8113   */\n      dup2\n        /* \"#utility.yul\":8105:8125   */\n      sub\n        /* \"#utility.yul\":8101:8102   */\n      0x00\n        /* \"#utility.yul\":8090:8099   */\n      dup4\n        /* \"#utility.yul\":8086:8103   */\n      add\n        /* \"#utility.yul\":8079:8126   */\n      mstore\n        /* \"#utility.yul\":8143:8274   */\n      tag_219\n        /* \"#utility.yul\":8269:8273   */\n      dup2\n        /* \"#utility.yul\":8143:8274   */\n      tag_174\n      jump\t// in\n    tag_219:\n        /* \"#utility.yul\":8135:8274   */\n      swap1\n      pop\n        /* \"#utility.yul\":7862:8281   */\n      swap2\n      swap1\n      pop\n      jump\t// out\n        /* \"#utility.yul\":8287:8706   */\n    tag_81:\n        /* \"#utility.yul\":8453:8457   */\n      0x00\n        /* \"#utility.yul\":8491:8493   */\n      0x20\n        /* \"#utility.yul\":8480:8489   */\n      dup3\n        /* \"#utility.yul\":8476:8494   */\n      add\n        /* \"#utility.yul\":8468:8494   */\n      swap1\n      pop\n        /* \"#utility.yul\":8540:8549   */\n      dup2\n        /* \"#utility.yul\":8534:8538   */\n      dup2\n        /* \"#utility.yul\":8530:8550   */\n      sub\n        /* \"#utility.yul\":8526:8527   */\n      0x00\n        /* \"#utility.yul\":8515:8524   */\n      dup4\n        /* \"#utility.yul\":8511:8528   */\n      add\n        /* \"#utility.yul\":8504:8551   */\n      mstore\n        /* \"#utility.yul\":8568:8699   */\n      tag_221\n        /* \"#utility.yul\":8694:8698   */\n      dup2\n        /* \"#utility.yul\":8568:8699   */\n      tag_179\n      jump\t// in\n    tag_221:\n        /* \"#utility.yul\":8560:8699   */\n      swap1\n      pop\n        /* \"#utility.yul\":8287:8706   */\n      swap2\n      swap1\n      pop\n      jump\t// out\n        /* \"#utility.yul\":8712:9131   */\n    tag_72:\n        /* \"#utility.yul\":8878:8882   */\n      0x00\n        /* \"#utility.yul\":8916:8918   */\n      0x20\n        /* \"#utility.yul\":8905:8914   */\n      dup3\n        /* \"#utility.yul\":8901:8919   */\n      add\n        /* \"#utility.yul\":8893:8919   */\n      swap1\n      pop\n        /* \"#utility.yul\":8965:8974   */\n      dup2\n        /* \"#utility.yul\":8959:8963   */\n      dup2\n        /* \"#utility.yul\":8955:8975   */\n      sub\n        /* \"#utility.yul\":8951:8952   */\n      0x00\n        /* \"#utility.yul\":8940:8949   */\n      dup4\n        /* \"#utility.yul\":8936:8953   */\n      add\n        /* \"#utility.yul\":8929:8976   */\n      mstore\n        /* \"#utility.yul\":8993:9124   */\n      tag_223\n        /* \"#utility.yul\":9119:9123   */\n      dup2\n        /* \"#utility.yul\":8993:9124   */\n      tag_184\n      jump\t// in\n    tag_223:\n        /* \"#utility.yul\":8985:9124   */\n      swap1\n      pop\n        /* \"#utility.yul\":8712:9131   */\n      swap2\n      swap1\n      pop\n      jump\t// out\n        /* \"#utility.yul\":9137:9556   */\n    tag_101:\n        /* \"#utility.yul\":9303:9307   */\n      0x00\n        /* \"#utility.yul\":9341:9343   */\n      0x20\n        /* \"#utility.yul\":9330:9339   */\n      dup3\n        /* \"#utility.yul\":9326:9344   */\n      add\n        /* \"#utility.yul\":9318:9344   */\n      swap1\n      pop\n        /* \"#utility.yul\":9390:9399   */\n      dup2\n        /* \"#utility.yul\":9384:9388   */\n      dup2\n        /* \"#utility.yul\":9380:9400   */\n      sub\n        /* \"#utility.yul\":9376:9377   */\n      0x00\n        /* \"#utility.yul\":9365:9374   */\n      dup4\n        /* \"#utility.yul\":9361:9378   */\n      add\n        /* \"#utility.yul\":9354:9401   */\n      mstore\n        /* \"#utility.yul\":9418:9549   */\n      tag_225\n        /* \"#utility.yul\":9544:9548   */\n      dup2\n        /* \"#utility.yul\":9418:9549   */\n      tag_189\n      jump\t// in\n    tag_225:\n        /* \"#utility.yul\":9410:9549   */\n      swap1\n      pop\n        /* \"#utility.yul\":9137:9556   */\n      swap2\n      swap1\n      pop\n      jump\t// out\n        /* \"#utility.yul\":9562:9784   */\n    tag_40:\n        /* \"#utility.yul\":9655:9659   */\n      0x00\n        /* \"#utility.yul\":9693:9695   */\n      0x20\n        /* \"#utility.yul\":9682:9691   */\n      dup3\n        /* \"#utility.yul\":9678:9696   */\n      add\n        /* \"#utility.yul\":9670:9696   */\n      swap1\n      pop\n        /* \"#utility.yul\":9706:9777   */\n      tag_227\n        /* \"#utility.yul\":9774:9775   */\n      0x00\n        /* \"#utility.yul\":9763:9772   */\n      dup4\n        /* \"#utility.yul\":9759:9776   */\n      add\n        /* \"#utility.yul\":9750:9756   */\n      dup5\n        /* \"#utility.yul\":9706:9777   */\n      tag_194\n      jump\t// in\n    tag_227:\n        /* \"#utility.yul\":9562:9784   */\n      swap3\n      swap2\n      pop\n      pop\n      jump\t// out\n        /* \"#utility.yul\":9871:10012   */\n    tag_155:\n        /* \"#utility.yul\":9920:9924   */\n      0x00\n        /* \"#utility.yul\":9943:9946   */\n      dup2\n        /* \"#utility.yul\":9935:9946   */\n      swap1\n      pop\n        /* \"#utility.yul\":9966:9969   */\n      dup2\n        /* \"#utility.yul\":9963:9964   */\n      0x00\n        /* \"#utility.yul\":9956:9970   */\n      mstore\n        /* \"#utility.yul\":10000:10004   */\n      0x20\n        /* \"#utility.yul\":9997:9998   */\n      0x00\n        /* \"#utility.yul\":9987:10005   */\n      keccak256\n        /* \"#utility.yul\":9979:10005   */\n      swap1\n      pop\n        /* \"#utility.yul\":9871:10012   */\n      swap2\n      swap1\n      pop\n      jump\t// out\n        /* \"#utility.yul\":10018:10117   */\n    tag_140:\n        /* \"#utility.yul\":10070:10076   */\n      0x00\n        /* \"#utility.yul\":10104:10109   */\n      dup2\n        /* \"#utility.yul\":10098:10110   */\n      mload\n        /* \"#utility.yul\":10088:10110   */\n      swap1\n      pop\n        /* \"#utility.yul\":10018:10117   */\n      swap2\n      swap1\n      pop\n      jump\t// out\n        /* \"#utility.yul\":10123:10292   */\n    tag_142:\n        /* \"#utility.yul\":10207:10218   */\n      0x00\n        /* \"#utility.yul\":10241:10247   */\n      dup3\n        /* \"#utility.yul\":10236:10239   */\n      dup3\n        /* \"#utility.yul\":10229:10248   */\n      mstore\n        /* \"#utility.yul\":10281:10285   */\n      0x20\n        /* \"#utility.yul\":10276:10279   */\n      dup3\n        /* \"#utility.yul\":10272:10286   */\n      add\n        /* \"#utility.yul\":10257:10286   */\n      swap1\n      pop\n        /* \"#utility.yul\":10123:10292   */\n      swap3\n      swap2\n      pop\n      pop\n      jump\t// out\n        /* \"#utility.yul\":10298:10603   */\n    tag_75:\n        /* \"#utility.yul\":10338:10341   */\n      0x00\n        /* \"#utility.yul\":10357:10377   */\n      tag_234\n        /* \"#utility.yul\":10375:10376   */\n      dup3\n        /* \"#utility.yul\":10357:10377   */\n      tag_197\n      jump\t// in\n    tag_234:\n        /* \"#utility.yul\":10352:10377   */\n      swap2\n      pop\n        /* \"#utility.yul\":10391:10411   */\n      tag_235\n        /* \"#utility.yul\":10409:10410   */\n      dup4\n        /* \"#utility.yul\":10391:10411   */\n      tag_197\n      jump\t// in\n    tag_235:\n        /* \"#utility.yul\":10386:10411   */\n      swap3\n      pop\n        /* \"#utility.yul\":10545:10546   */\n      dup3\n        /* \"#utility.yul\":10477:10543   */\n      0xffffffffffffffffffffffffffffffffffffffffffffffffffffffffffffffff\n        /* \"#utility.yul\":10473:10547   */\n      sub\n        /* \"#utility.yul\":10470:10471   */\n      dup3\n        /* \"#utility.yul\":10467:10548   */\n      gt\n        /* \"#utility.yul\":10464:10571   */\n      iszero\n      tag_236\n      jumpi\n        /* \"#utility.yul\":10551:10569   */\n      tag_237\n      tag_238\n      jump\t// in\n    tag_237:\n        /* \"#utility.yul\":10464:10571   */\n    tag_236:\n        /* \"#utility.yul\":10595:10596   */\n      dup3\n        /* \"#utility.yul\":10592:10593   */\n      dup3\n        /* \"#utility.yul\":10588:10597   */\n      add\n        /* \"#utility.yul\":10581:10597   */\n      swap1\n      pop\n        /* \"#utility.yul\":10298:10603   */\n      swap3\n      swap2\n      pop\n      pop\n      jump\t// out\n        /* \"#utility.yul\":10609:10705   */\n    tag_132:\n        /* \"#utility.yul\":10646:10653   */\n      0x00\n        /* \"#utility.yul\":10675:10699   */\n      tag_240\n        /* \"#utility.yul\":10693:10698   */\n      dup3\n        /* \"#utility.yul\":10675:10699   */\n      tag_241\n      jump\t// in\n    tag_240:\n        /* \"#utility.yul\":10664:10699   */\n      swap1\n      pop\n        /* \"#utility.yul\":10609:10705   */\n      swap2\n      swap1\n      pop\n      jump\t// out\n        /* \"#utility.yul\":10711:10815   */\n    tag_128:\n        /* \"#utility.yul\":10756:10763   */\n      0x00\n        /* \"#utility.yul\":10785:10809   */\n      tag_243\n        /* \"#utility.yul\":10803:10808   */\n      dup3\n        /* \"#utility.yul\":10785:10809   */\n      tag_241\n      jump\t// in\n    tag_243:\n        /* \"#utility.yul\":10774:10809   */\n      swap1\n      pop\n        /* \"#utility.yul\":10711:10815   */\n      swap2\n      swap1\n      pop\n      jump\t// out\n        /* \"#utility.yul\":10821:10911   */\n    tag_136:\n        /* \"#utility.yul\":10855:10862   */\n      0x00\n        /* \"#utility.yul\":10898:10903   */\n      dup2\n        /* \"#utility.yul\":10891:10904   */\n      iszero\n        /* \"#utility.yul\":10884:10905   */\n      iszero\n        /* \"#utility.yul\":10873:10905   */\n      swap1\n      pop\n        /* \"#utility.yul\":10821:10911   */\n      swap2\n      swap1\n      pop\n      jump\t// out\n        /* \"#utility.yul\":10917:11043   */\n    tag_241:\n        /* \"#utility.yul\":10954:10961   */\n      0x00\n        /* \"#utility.yul\":10994:11036   */\n      0xffffffffffffffffffffffffffffffffffffffff\n        /* \"#utility.yul\":10987:10992   */\n      dup3\n        /* \"#utility.yul\":10983:11037   */\n      and\n        /* \"#utility.yul\":10972:11037   */\n      swap1\n      pop\n        /* \"#utility.yul\":10917:11043   */\n      swap2\n      swap1\n      pop\n      jump\t// out\n        /* \"#utility.yul\":11049:11126   */\n    tag_197:\n        /* \"#utility.yul\":11086:11093   */\n      0x00\n        /* \"#utility.yul\":11115:11120   */\n      dup2\n        /* \"#utility.yul\":11104:11120   */\n      swap1\n      pop\n        /* \"#utility.yul\":11049:11126   */\n      swap2\n      swap1\n      pop\n      jump\t// out\n        /* \"#utility.yul\":11132:11439   */\n    tag_144:\n        /* \"#utility.yul\":11200:11201   */\n      0x00\n        /* \"#utility.yul\":11210:11323   */\n    tag_248:\n        /* \"#utility.yul\":11224:11230   */\n      dup4\n        /* \"#utility.yul\":11221:11222   */\n      dup2\n        /* \"#utility.yul\":11218:11231   */\n      lt\n        /* \"#utility.yul\":11210:11323   */\n      iszero\n      tag_250\n      jumpi\n        /* \"#utility.yul\":11309:11310   */\n      dup1\n        /* \"#utility.yul\":11304:11307   */\n      dup3\n        /* \"#utility.yul\":11300:11311   */\n      add\n        /* \"#utility.yul\":11294:11312   */\n      mload\n        /* \"#utility.yul\":11290:11291   */\n      dup2\n        /* \"#utility.yul\":11285:11288   */\n      dup5\n        /* \"#utility.yul\":11281:11292   */\n      add\n        /* \"#utility.yul\":11274:11313   */\n      mstore\n        /* \"#utility.yul\":11246:11248   */\n      0x20\n        /* \"#utility.yul\":11243:11244   */\n      dup2\n        /* \"#utility.yul\":11239:11249   */\n      add\n        /* \"#utility.yul\":11234:11249   */\n      swap1\n      pop\n        /* \"#utility.yul\":11210:11323   */\n      jump(tag_248)\n    tag_250:\n        /* \"#utility.yul\":11341:11347   */\n      dup4\n        /* \"#utility.yul\":11338:11339   */\n      dup2\n        /* \"#utility.yul\":11335:11348   */\n      gt\n        /* \"#utility.yul\":11332:11433   */\n      iszero\n      tag_251\n      jumpi\n        /* \"#utility.yul\":11421:11422   */\n      0x00\n        /* \"#utility.yul\":11412:11418   */\n      dup5\n        /* \"#utility.yul\":11407:11410   */\n      dup5\n        /* \"#utility.yul\":11403:11419   */\n      add\n        /* \"#utility.yul\":11396:11423   */\n      mstore\n        /* \"#utility.yul\":11332:11433   */\n    tag_251:\n        /* \"#utility.yul\":11181:11439   */\n      pop\n        /* \"#utility.yul\":11132:11439   */\n      pop\n      pop\n      pop\n      jump\t// out\n        /* \"#utility.yul\":11445:11765   */\n    tag_110:\n        /* \"#utility.yul\":11489:11495   */\n      0x00\n        /* \"#utility.yul\":11526:11527   */\n      0x02\n        /* \"#utility.yul\":11520:11524   */\n      dup3\n        /* \"#utility.yul\":11516:11528   */\n      div\n        /* \"#utility.yul\":11506:11528   */\n      swap1\n      pop\n        /* \"#utility.yul\":11573:11574   */\n      0x01\n        /* \"#utility.yul\":11567:11571   */\n      dup3\n        /* \"#utility.yul\":11563:11575   */\n      and\n        /* \"#utility.yul\":11594:11612   */\n      dup1\n        /* \"#utility.yul\":11584:11665   */\n      tag_253\n      jumpi\n        /* \"#utility.yul\":11650:11654   */\n      0x7f\n        /* \"#utility.yul\":11642:11648   */\n      dup3\n        /* \"#utility.yul\":11638:11655   */\n      and\n        /* \"#utility.yul\":11628:11655   */\n      swap2\n      pop\n        /* \"#utility.yul\":11584:11665   */\n    tag_253:\n        /* \"#utility.yul\":11712:11714   */\n      0x20\n        /* \"#utility.yul\":11704:11710   */\n      dup3\n        /* \"#utility.yul\":11701:11715   */\n      lt\n        /* \"#utility.yul\":11681:11699   */\n      dup2\n        /* \"#utility.yul\":11678:11716   */\n      eq\n        /* \"#utility.yul\":11675:11759   */\n      iszero\n      tag_254\n      jumpi\n        /* \"#utility.yul\":11731:11749   */\n      tag_255\n      tag_256\n      jump\t// in\n    tag_255:\n        /* \"#utility.yul\":11675:11759   */\n    tag_254:\n        /* \"#utility.yul\":11496:11765   */\n      pop\n        /* \"#utility.yul\":11445:11765   */\n      swap2\n      swap1\n      pop\n      jump\t// out\n        /* \"#utility.yul\":11771:11951   */\n    tag_238:\n        /* \"#utility.yul\":11819:11896   */\n      0x4e487b7100000000000000000000000000000000000000000000000000000000\n        /* \"#utility.yul\":11816:11817   */\n      0x00\n        /* \"#utility.yul\":11809:11897   */\n      mstore\n        /* \"#utility.yul\":11916:11920   */\n      0x11\n        /* \"#utility.yul\":11913:11914   */\n      0x04\n        /* \"#utility.yul\":11906:11921   */\n      mstore\n        /* \"#utility.yul\":11940:11944   */\n      0x24\n        /* \"#utility.yul\":11937:11938   */\n      0x00\n        /* \"#utility.yul\":11930:11945   */\n      revert\n        /* \"#utility.yul\":11957:12137   */\n    tag_256:\n        /* \"#utility.yul\":12005:12082   */\n      0x4e487b7100000000000000000000000000000000000000000000000000000000\n        /* \"#utility.yul\":12002:12003   */\n      0x00\n        /* \"#utility.yul\":11995:12083   */\n      mstore\n        /* \"#utility.yul\":12102:12106   */\n      0x22\n        /* \"#utility.yul\":12099:12100   */\n      0x04\n        /* \"#utility.yul\":12092:12107   */\n      mstore\n        /* \"#utility.yul\":12126:12130   */\n      0x24\n        /* \"#utility.yul\":12123:12124   */\n      0x00\n        /* \"#utility.yul\":12116:12131   */\n      revert\n        /* \"#utility.yul\":12266:12383   */\n    tag_123:\n        /* \"#utility.yul\":12375:12376   */\n      0x00\n        /* \"#utility.yul\":12372:12373   */\n      dup1\n        /* \"#utility.yul\":12365:12377   */\n      revert\n        /* \"#utility.yul\":12389:12491   */\n    tag_146:\n        /* \"#utility.yul\":12430:12436   */\n      0x00\n        /* \"#utility.yul\":12481:12483   */\n      0x1f\n        /* \"#utility.yul\":12477:12484   */\n      not\n        /* \"#utility.yul\":12472:12474   */\n      0x1f\n        /* \"#utility.yul\":12465:12470   */\n      dup4\n        /* \"#utility.yul\":12461:12475   */\n      add\n        /* \"#utility.yul\":12457:12485   */\n      and\n        /* \"#utility.yul\":12447:12485   */\n      swap1\n      pop\n        /* \"#utility.yul\":12389:12491   */\n      swap2\n      swap1\n      pop\n      jump\t// out\n        /* \"#utility.yul\":12497:12663   */\n    tag_163:\n        /* \"#utility.yul\":12637:12655   */\n      0x43414e27542053544f50204d414e4e5900000000000000000000000000000000\n        /* \"#utility.yul\":12633:12634   */\n      0x00\n        /* \"#utility.yul\":12625:12631   */\n      dup3\n        /* \"#utility.yul\":12621:12635   */\n      add\n        /* \"#utility.yul\":12614:12656   */\n      mstore\n        /* \"#utility.yul\":12497:12663   */\n      pop\n      jump\t// out\n        /* \"#utility.yul\":12669:12833   */\n    tag_168:\n        /* \"#utility.yul\":12809:12825   */\n      0x414c5245414459204f4e20424948000000000000000000000000000000000000\n        /* \"#utility.yul\":12805:12806   */\n      0x00\n        /* \"#utility.yul\":12797:12803   */\n      dup3\n        /* \"#utility.yul\":12793:12807   */\n      add\n        /* \"#utility.yul\":12786:12826   */\n      mstore\n        /* \"#utility.yul\":12669:12833   */\n      pop\n      jump\t// out\n        /* \"#utility.yul\":12839:13009   */\n    tag_173:\n        /* \"#utility.yul\":12979:13001   */\n      0x49542041494e54205354415254454420464f4f4c000000000000000000000000\n        /* \"#utility.yul\":12975:12976   */\n      0x00\n        /* \"#utility.yul\":12967:12973   */\n      dup3\n        /* \"#utility.yul\":12963:12977   */\n      add\n        /* \"#utility.yul\":12956:13002   */\n      mstore\n        /* \"#utility.yul\":12839:13009   */\n      pop\n      jump\t// out\n        /* \"#utility.yul\":13015:13177   */\n    tag_178:\n        /* \"#utility.yul\":13155:13169   */\n      0x57484f2041524520594f553f0000000000000000000000000000000000000000\n        /* \"#utility.yul\":13151:13152   */\n      0x00\n        /* \"#utility.yul\":13143:13149   */\n      dup3\n        /* \"#utility.yul\":13139:13153   */\n      add\n        /* \"#utility.yul\":13132:13170   */\n      mstore\n        /* \"#utility.yul\":13015:13177   */\n      pop\n      jump\t// out\n        /* \"#utility.yul\":13183:13342   */\n    tag_183:\n        /* \"#utility.yul\":13323:13334   */\n      0x696e636f72726563740000000000000000000000000000000000000000000000\n        /* \"#utility.yul\":13319:13320   */\n      0x00\n        /* \"#utility.yul\":13311:13317   */\n      dup3\n        /* \"#utility.yul\":13307:13321   */\n      add\n        /* \"#utility.yul\":13300:13335   */\n      mstore\n        /* \"#utility.yul\":13183:13342   */\n      pop\n      jump\t// out\n        /* \"#utility.yul\":13348:13519   */\n    tag_188:\n        /* \"#utility.yul\":13488:13511   */\n      0x594f552042524f4b453f204e4f5420454e4f5547480000000000000000000000\n        /* \"#utility.yul\":13484:13485   */\n      0x00\n        /* \"#utility.yul\":13476:13482   */\n      dup3\n        /* \"#utility.yul\":13472:13486   */\n      add\n        /* \"#utility.yul\":13465:13512   */\n      mstore\n        /* \"#utility.yul\":13348:13519   */\n      pop\n      jump\t// out\n        /* \"#utility.yul\":13525:13688   */\n    tag_193:\n        /* \"#utility.yul\":13665:13680   */\n      0x616c726561647920656e64656400000000000000000000000000000000000000\n        /* \"#utility.yul\":13661:13662   */\n      0x00\n        /* \"#utility.yul\":13653:13659   */\n      dup3\n        /* \"#utility.yul\":13649:13663   */\n      add\n        /* \"#utility.yul\":13642:13681   */\n      mstore\n        /* \"#utility.yul\":13525:13688   */\n      pop\n      jump\t// out\n        /* \"#utility.yul\":13694:13816   */\n    tag_119:\n        /* \"#utility.yul\":13767:13791   */\n      tag_271\n        /* \"#utility.yul\":13785:13790   */\n      dup2\n        /* \"#utility.yul\":13767:13791   */\n      tag_132\n      jump\t// in\n    tag_271:\n        /* \"#utility.yul\":13760:13765   */\n      dup2\n        /* \"#utility.yul\":13757:13792   */\n      eq\n        /* \"#utility.yul\":13747:13810   */\n      tag_272\n      jumpi\n        /* \"#utility.yul\":13806:13807   */\n      0x00\n        /* \"#utility.yul\":13803:13804   */\n      dup1\n        /* \"#utility.yul\":13796:13808   */\n      revert\n        /* \"#utility.yul\":13747:13810   */\n    tag_272:\n        /* \"#utility.yul\":13694:13816   */\n      pop\n      jump\t// out\n\n    auxdata: 0xa2646970667358221220ac413bd87b9d7c8196e0dac473805b4f220dbf101bbe2c065cbd917aa1aeec9464736f6c63430008070033\n}\n",
				"bytecode": {
					"linkReferences": {},
					"object": "60a06040523480156200001157600080fd5b506040516200151b3803806200151b8339818101604052810190620000379190620001db565b81600090805190602001906200004f92919062000096565b50806003819055503373ffffffffffffffffffffffffffffffffffffffff1660808173ffffffffffffffffffffffffffffffffffffffff1660601b815250505050620003e9565b828054620000a490620002e0565b90600052602060002090601f016020900481019282620000c8576000855562000114565b82601f10620000e357805160ff191683800117855562000114565b8280016001018555821562000114579182015b8281111562000113578251825591602001919060010190620000f6565b5b50905062000123919062000127565b5090565b5b808211156200014257600081600090555060010162000128565b5090565b60006200015d62000157846200026a565b62000241565b9050828152602081018484840111156200017c576200017b620003af565b5b62000189848285620002aa565b509392505050565b600082601f830112620001a957620001a8620003aa565b5b8151620001bb84826020860162000146565b91505092915050565b600081519050620001d581620003cf565b92915050565b60008060408385031215620001f557620001f4620003b9565b5b600083015167ffffffffffffffff811115620002165762000215620003b4565b5b620002248582860162000191565b92505060206200023785828601620001c4565b9150509250929050565b60006200024d62000260565b90506200025b828262000316565b919050565b6000604051905090565b600067ffffffffffffffff8211156200028857620002876200037b565b5b6200029382620003be565b9050602081019050919050565b6000819050919050565b60005b83811015620002ca578082015181840152602081019050620002ad565b83811115620002da576000848401525b50505050565b60006002820490506001821680620002f957607f821691505b6020821081141562000310576200030f6200034c565b5b50919050565b6200032182620003be565b810181811067ffffffffffffffff821117156200034357620003426200037b565b5b80604052505050565b7f4e487b7100000000000000000000000000000000000000000000000000000000600052602260045260246000fd5b7f4e487b7100000000000000000000000000000000000000000000000000000000600052604160045260246000fd5b600080fd5b600080fd5b600080fd5b600080fd5b6000601f19601f8301169050919050565b620003da81620002a0565b8114620003e657600080fd5b50565b60805160601c6111056200041660003960008181610267015281816105f2015261089701526111056000f3fe6080604052600436106100a75760003560e01c80637cc3ae8c116100645780637cc3ae8c1461018b57806391f90157146101b6578063be9a6555146101e1578063d57bde79146101f8578063efbe1c1c14610223578063f2a4a82e1461023a576100a7565b806308551a53146100ac57806312fa6feb146100d75780631998aeef146101025780631f2698ab1461010c5780633ccfd60b1461013757806362ea82db1461014e575b600080fd5b3480156100b857600080fd5b506100c1610265565b6040516100ce9190610c33565b60405180910390f35b3480156100e357600080fd5b506100ec610289565b6040516100f99190610c77565b60405180910390f35b61010a61029c565b005b34801561011857600080fd5b50610121610483565b60405161012e9190610c77565b60405180910390f35b34801561014357600080fd5b5061014c610496565b005b34801561015a57600080fd5b5061017560048036038101906101709190610a01565b6105ac565b6040516101829190610dc4565b60405180910390f35b34801561019757600080fd5b506101a06105c4565b6040516101ad9190610dc4565b60405180910390f35b3480156101c257600080fd5b506101cb6105ca565b6040516101d89190610c18565b60405180910390f35b3480156101ed57600080fd5b506101f66105f0565b005b34801561020457600080fd5b5061020d61073a565b60405161021a9190610dc4565b60405180910390f35b34801561022f57600080fd5b50610238610740565b005b34801561024657600080fd5b5061024f61095e565b60405161025c9190610c92565b60405180910390f35b7f000000000000000000000000000000000000000000000000000000000000000081565b600260019054906101000a900460ff1681565b600260009054906101000a900460ff166102eb576040517f08c379a00000000000000000000000000000000000000000000000000000000081526004016102e290610d24565b60405180910390fd5b600354341161032f576040517f08c379a000000000000000000000000000000000000000000000000000000000815260040161032690610d84565b60405180910390fd5b600073ffffffffffffffffffffffffffffffffffffffff16600460009054906101000a900473ffffffffffffffffffffffffffffffffffffffff1673ffffffffffffffffffffffffffffffffffffffff16146104005760035460056000600460009054906101000a900473ffffffffffffffffffffffffffffffffffffffff1673ffffffffffffffffffffffffffffffffffffffff1673ffffffffffffffffffffffffffffffffffffffff16815260200190815260200160002060008282546103f89190610e10565b925050819055505b3460038190555033600460006101000a81548173ffffffffffffffffffffffffffffffffffffffff021916908373ffffffffffffffffffffffffffffffffffffffff1602179055507fe684a55f31b79eca403df938249029212a5925ec6be8012e099b45bc1019e5d23334604051610479929190610c4e565b60405180910390a1565b600260009054906101000a900460ff1681565b6000600560003373ffffffffffffffffffffffffffffffffffffffff1673ffffffffffffffffffffffffffffffffffffffff1681526020019081526020016000205490506000811161051d576040517f08c379a000000000000000000000000000000000000000000000000000000000815260040161051490610d64565b60405180910390fd5b6000600560003373ffffffffffffffffffffffffffffffffffffffff1673ffffffffffffffffffffffffffffffffffffffff168152602001908152602001600020819055503373ffffffffffffffffffffffffffffffffffffffff166108fc829081150290604051600060405180830381858888f193505050501580156105a8573d6000803e3d6000fd5b5050565b60056020528060005260406000206000915090505481565b60015481565b600460009054906101000a900473ffffffffffffffffffffffffffffffffffffffff1681565b7f000000000000000000000000000000000000000000000000000000000000000073ffffffffffffffffffffffffffffffffffffffff163373ffffffffffffffffffffffffffffffffffffffff161461067e576040517f08c379a000000000000000000000000000000000000000000000000000000000815260040161067590610d44565b60405180910390fd5b600260009054906101000a900460ff16156106ce576040517f08c379a00000000000000000000000000000000000000000000000000000000081526004016106c590610d04565b60405180910390fd5b6001600260006101000a81548160ff0219169083151502179055506046426106f69190610e10565b6001819055507f26b8c73018ea4e6299b90779c551701c61c7845a0af0f962d555582369819b8e6000600354604051610730929190610cb4565b60405180910390a1565b60035481565b600260009054906101000a900460ff1661078f576040517f08c379a000000000000000000000000000000000000000000000000000000000815260040161078690610d24565b60405180910390fd5b600260019054906101000a900460ff16156107df576040517f08c379a00000000000000000000000000000000000000000000000000000000081526004016107d690610da4565b60405180910390fd5b600154421015610824576040517f08c379a000000000000000000000000000000000000000000000000000000000815260040161081b90610ce4565b60405180910390fd5b6001600260016101000a81548160ff021916908315150217905550600073ffffffffffffffffffffffffffffffffffffffff16600460009054906101000a900473ffffffffffffffffffffffffffffffffffffffff1673ffffffffffffffffffffffffffffffffffffffff16146108ff577f000000000000000000000000000000000000000000000000000000000000000073ffffffffffffffffffffffffffffffffffffffff166108fc6003549081150290604051600060405180830381858888f193505050501580156108fd573d6000803e3d6000fd5b505b7f7d7570b046e5ead3a4f3fbc9fa2445113625a1e79823776146316bafed6b8cc5600460009054906101000a900473ffffffffffffffffffffffffffffffffffffffff16600354604051610954929190610c4e565b60405180910390a1565b6000805461096b90610ef3565b80601f016020809104026020016040519081016040528092919081815260200182805461099790610ef3565b80156109e45780601f106109b9576101008083540402835291602001916109e4565b820191906000526020600020905b8154815290600101906020018083116109c757829003601f168201915b505050505081565b6000813590506109fb816110b8565b92915050565b600060208284031215610a1757610a16610f83565b5b6000610a25848285016109ec565b91505092915050565b610a3781610e78565b82525050565b610a4681610e66565b82525050565b610a5581610e8a565b82525050565b6000610a6682610df4565b610a708185610dff565b9350610a80818560208601610ec0565b610a8981610f88565b840191505092915050565b60008154610aa181610ef3565b610aab8186610dff565b94506001821660008114610ac65760018114610ad857610b0b565b60ff1983168652602086019350610b0b565b610ae185610ddf565b60005b83811015610b0357815481890152600182019150602081019050610ae4565b808801955050505b50505092915050565b6000610b21601083610dff565b9150610b2c82610f99565b602082019050919050565b6000610b44600e83610dff565b9150610b4f82610fc2565b602082019050919050565b6000610b67601483610dff565b9150610b7282610feb565b602082019050919050565b6000610b8a600c83610dff565b9150610b9582611014565b602082019050919050565b6000610bad600983610dff565b9150610bb88261103d565b602082019050919050565b6000610bd0601583610dff565b9150610bdb82611066565b602082019050919050565b6000610bf3600d83610dff565b9150610bfe8261108f565b602082019050919050565b610c1281610eb6565b82525050565b6000602082019050610c2d6000830184610a3d565b92915050565b6000602082019050610c486000830184610a2e565b92915050565b6000604082019050610c636000830185610a3d565b610c706020830184610c09565b9392505050565b6000602082019050610c8c6000830184610a4c565b92915050565b60006020820190508181036000830152610cac8184610a5b565b905092915050565b60006040820190508181036000830152610cce8185610a94565b9050610cdd6020830184610c09565b9392505050565b60006020820190508181036000830152610cfd81610b14565b9050919050565b60006020820190508181036000830152610d1d81610b37565b9050919050565b60006020820190508181036000830152610d3d81610b5a565b9050919050565b60006020820190508181036000830152610d5d81610b7d565b9050919050565b60006020820190508181036000830152610d7d81610ba0565b9050919050565b60006020820190508181036000830152610d9d81610bc3565b9050919050565b60006020820190508181036000830152610dbd81610be6565b9050919050565b6000602082019050610dd96000830184610c09565b92915050565b60008190508160005260206000209050919050565b600081519050919050565b600082825260208201905092915050565b6000610e1b82610eb6565b9150610e2683610eb6565b9250827fffffffffffffffffffffffffffffffffffffffffffffffffffffffffffffffff03821115610e5b57610e5a610f25565b5b828201905092915050565b6000610e7182610e96565b9050919050565b6000610e8382610e96565b9050919050565b60008115159050919050565b600073ffffffffffffffffffffffffffffffffffffffff82169050919050565b6000819050919050565b60005b83811015610ede578082015181840152602081019050610ec3565b83811115610eed576000848401525b50505050565b60006002820490506001821680610f0b57607f821691505b60208210811415610f1f57610f1e610f54565b5b50919050565b7f4e487b7100000000000000000000000000000000000000000000000000000000600052601160045260246000fd5b7f4e487b7100000000000000000000000000000000000000000000000000000000600052602260045260246000fd5b600080fd5b6000601f19601f8301169050919050565b7f43414e27542053544f50204d414e4e5900000000000000000000000000000000600082015250565b7f414c5245414459204f4e20424948000000000000000000000000000000000000600082015250565b7f49542041494e54205354415254454420464f4f4c000000000000000000000000600082015250565b7f57484f2041524520594f553f0000000000000000000000000000000000000000600082015250565b7f696e636f72726563740000000000000000000000000000000000000000000000600082015250565b7f594f552042524f4b453f204e4f5420454e4f5547480000000000000000000000600082015250565b7f616c726561647920656e64656400000000000000000000000000000000000000600082015250565b6110c181610e66565b81146110cc57600080fd5b5056fea2646970667358221220ac413bd87b9d7c8196e0dac473805b4f220dbf101bbe2c065cbd917aa1aeec9464736f6c63430008070033",
					"opcodes": "PUSH1 0xA0 PUSH1 0x40 MSTORE CALLVALUE DUP1 ISZERO PUSH3 0x11 JUMPI PUSH1 0x0 DUP1 REVERT JUMPDEST POP PUSH1 0x40 MLOAD PUSH3 0x151B CODESIZE SUB DUP1 PUSH3 0x151B DUP4 CODECOPY DUP2 DUP2 ADD PUSH1 0x40 MSTORE DUP2 ADD SWAP1 PUSH3 0x37 SWAP2 SWAP1 PUSH3 0x1DB JUMP JUMPDEST DUP2 PUSH1 0x0 SWAP1 DUP1 MLOAD SWAP1 PUSH1 0x20 ADD SWAP1 PUSH3 0x4F SWAP3 SWAP2 SWAP1 PUSH3 0x96 JUMP JUMPDEST POP DUP1 PUSH1 0x3 DUP2 SWAP1 SSTORE POP CALLER PUSH20 0xFFFFFFFFFFFFFFFFFFFFFFFFFFFFFFFFFFFFFFFF AND PUSH1 0x80 DUP2 PUSH20 0xFFFFFFFFFFFFFFFFFFFFFFFFFFFFFFFFFFFFFFFF AND PUSH1 0x60 SHL DUP2 MSTORE POP POP POP POP PUSH3 0x3E9 JUMP JUMPDEST DUP3 DUP1 SLOAD PUSH3 0xA4 SWAP1 PUSH3 0x2E0 JUMP JUMPDEST SWAP1 PUSH1 0x0 MSTORE PUSH1 0x20 PUSH1 0x0 KECCAK256 SWAP1 PUSH1 0x1F ADD PUSH1 0x20 SWAP1 DIV DUP2 ADD SWAP3 DUP3 PUSH3 0xC8 JUMPI PUSH1 0x0 DUP6 SSTORE PUSH3 0x114 JUMP JUMPDEST DUP3 PUSH1 0x1F LT PUSH3 0xE3 JUMPI DUP1 MLOAD PUSH1 0xFF NOT AND DUP4 DUP1 ADD OR DUP6 SSTORE PUSH3 0x114 JUMP JUMPDEST DUP3 DUP1 ADD PUSH1 0x1 ADD DUP6 SSTORE DUP3 ISZERO PUSH3 0x114 JUMPI SWAP2 DUP3 ADD JUMPDEST DUP3 DUP2 GT ISZERO PUSH3 0x113 JUMPI DUP3 MLOAD DUP3 SSTORE SWAP2 PUSH1 0x20 ADD SWAP2 SWAP1 PUSH1 0x1 ADD SWAP1 PUSH3 0xF6 JUMP JUMPDEST JUMPDEST POP SWAP1 POP PUSH3 0x123 SWAP2 SWAP1 PUSH3 0x127 JUMP JUMPDEST POP SWAP1 JUMP JUMPDEST JUMPDEST DUP1 DUP3 GT ISZERO PUSH3 0x142 JUMPI PUSH1 0x0 DUP2 PUSH1 0x0 SWAP1 SSTORE POP PUSH1 0x1 ADD PUSH3 0x128 JUMP JUMPDEST POP SWAP1 JUMP JUMPDEST PUSH1 0x0 PUSH3 0x15D PUSH3 0x157 DUP5 PUSH3 0x26A JUMP JUMPDEST PUSH3 0x241 JUMP JUMPDEST SWAP1 POP DUP3 DUP2 MSTORE PUSH1 0x20 DUP2 ADD DUP5 DUP5 DUP5 ADD GT ISZERO PUSH3 0x17C JUMPI PUSH3 0x17B PUSH3 0x3AF JUMP JUMPDEST JUMPDEST PUSH3 0x189 DUP5 DUP3 DUP6 PUSH3 0x2AA JUMP JUMPDEST POP SWAP4 SWAP3 POP POP POP JUMP JUMPDEST PUSH1 0x0 DUP3 PUSH1 0x1F DUP4 ADD SLT PUSH3 0x1A9 JUMPI PUSH3 0x1A8 PUSH3 0x3AA JUMP JUMPDEST JUMPDEST DUP2 MLOAD PUSH3 0x1BB DUP5 DUP3 PUSH1 0x20 DUP7 ADD PUSH3 0x146 JUMP JUMPDEST SWAP2 POP POP SWAP3 SWAP2 POP POP JUMP JUMPDEST PUSH1 0x0 DUP2 MLOAD SWAP1 POP PUSH3 0x1D5 DUP2 PUSH3 0x3CF JUMP JUMPDEST SWAP3 SWAP2 POP POP JUMP JUMPDEST PUSH1 0x0 DUP1 PUSH1 0x40 DUP4 DUP6 SUB SLT ISZERO PUSH3 0x1F5 JUMPI PUSH3 0x1F4 PUSH3 0x3B9 JUMP JUMPDEST JUMPDEST PUSH1 0x0 DUP4 ADD MLOAD PUSH8 0xFFFFFFFFFFFFFFFF DUP2 GT ISZERO PUSH3 0x216 JUMPI PUSH3 0x215 PUSH3 0x3B4 JUMP JUMPDEST JUMPDEST PUSH3 0x224 DUP6 DUP3 DUP7 ADD PUSH3 0x191 JUMP JUMPDEST SWAP3 POP POP PUSH1 0x20 PUSH3 0x237 DUP6 DUP3 DUP7 ADD PUSH3 0x1C4 JUMP JUMPDEST SWAP2 POP POP SWAP3 POP SWAP3 SWAP1 POP JUMP JUMPDEST PUSH1 0x0 PUSH3 0x24D PUSH3 0x260 JUMP JUMPDEST SWAP1 POP PUSH3 0x25B DUP3 DUP3 PUSH3 0x316 JUMP JUMPDEST SWAP2 SWAP1 POP JUMP JUMPDEST PUSH1 0x0 PUSH1 0x40 MLOAD SWAP1 POP SWAP1 JUMP JUMPDEST PUSH1 0x0 PUSH8 0xFFFFFFFFFFFFFFFF DUP3 GT ISZERO PUSH3 0x288 JUMPI PUSH3 0x287 PUSH3 0x37B JUMP JUMPDEST JUMPDEST PUSH3 0x293 DUP3 PUSH3 0x3BE JUMP JUMPDEST SWAP1 POP PUSH1 0x20 DUP2 ADD SWAP1 POP SWAP2 SWAP1 POP JUMP JUMPDEST PUSH1 0x0 DUP2 SWAP1 POP SWAP2 SWAP1 POP JUMP JUMPDEST PUSH1 0x0 JUMPDEST DUP4 DUP2 LT ISZERO PUSH3 0x2CA JUMPI DUP1 DUP3 ADD MLOAD DUP2 DUP5 ADD MSTORE PUSH1 0x20 DUP2 ADD SWAP1 POP PUSH3 0x2AD JUMP JUMPDEST DUP4 DUP2 GT ISZERO PUSH3 0x2DA JUMPI PUSH1 0x0 DUP5 DUP5 ADD MSTORE JUMPDEST POP POP POP POP JUMP JUMPDEST PUSH1 0x0 PUSH1 0x2 DUP3 DIV SWAP1 POP PUSH1 0x1 DUP3 AND DUP1 PUSH3 0x2F9 JUMPI PUSH1 0x7F DUP3 AND SWAP2 POP JUMPDEST PUSH1 0x20 DUP3 LT DUP2 EQ ISZERO PUSH3 0x310 JUMPI PUSH3 0x30F PUSH3 0x34C JUMP JUMPDEST JUMPDEST POP SWAP2 SWAP1 POP JUMP JUMPDEST PUSH3 0x321 DUP3 PUSH3 0x3BE JUMP JUMPDEST DUP2 ADD DUP2 DUP2 LT PUSH8 0xFFFFFFFFFFFFFFFF DUP3 GT OR ISZERO PUSH3 0x343 JUMPI PUSH3 0x342 PUSH3 0x37B JUMP JUMPDEST JUMPDEST DUP1 PUSH1 0x40 MSTORE POP POP POP JUMP JUMPDEST PUSH32 0x4E487B7100000000000000000000000000000000000000000000000000000000 PUSH1 0x0 MSTORE PUSH1 0x22 PUSH1 0x4 MSTORE PUSH1 0x24 PUSH1 0x0 REVERT JUMPDEST PUSH32 0x4E487B7100000000000000000000000000000000000000000000000000000000 PUSH1 0x0 MSTORE PUSH1 0x41 PUSH1 0x4 MSTORE PUSH1 0x24 PUSH1 0x0 REVERT JUMPDEST PUSH1 0x0 DUP1 REVERT JUMPDEST PUSH1 0x0 DUP1 REVERT JUMPDEST PUSH1 0x0 DUP1 REVERT JUMPDEST PUSH1 0x0 DUP1 REVERT JUMPDEST PUSH1 0x0 PUSH1 0x1F NOT PUSH1 0x1F DUP4 ADD AND SWAP1 POP SWAP2 SWAP1 POP JUMP JUMPDEST PUSH3 0x3DA DUP2 PUSH3 0x2A0 JUMP JUMPDEST DUP2 EQ PUSH3 0x3E6 JUMPI PUSH1 0x0 DUP1 REVERT JUMPDEST POP JUMP JUMPDEST PUSH1 0x80 MLOAD PUSH1 0x60 SHR PUSH2 0x1105 PUSH3 0x416 PUSH1 0x0 CODECOPY PUSH1 0x0 DUP2 DUP2 PUSH2 0x267 ADD MSTORE DUP2 DUP2 PUSH2 0x5F2 ADD MSTORE PUSH2 0x897 ADD MSTORE PUSH2 0x1105 PUSH1 0x0 RETURN INVALID PUSH1 0x80 PUSH1 0x40 MSTORE PUSH1 0x4 CALLDATASIZE LT PUSH2 0xA7 JUMPI PUSH1 0x0 CALLDATALOAD PUSH1 0xE0 SHR DUP1 PUSH4 0x7CC3AE8C GT PUSH2 0x64 JUMPI DUP1 PUSH4 0x7CC3AE8C EQ PUSH2 0x18B JUMPI DUP1 PUSH4 0x91F90157 EQ PUSH2 0x1B6 JUMPI DUP1 PUSH4 0xBE9A6555 EQ PUSH2 0x1E1 JUMPI DUP1 PUSH4 0xD57BDE79 EQ PUSH2 0x1F8 JUMPI DUP1 PUSH4 0xEFBE1C1C EQ PUSH2 0x223 JUMPI DUP1 PUSH4 0xF2A4A82E EQ PUSH2 0x23A JUMPI PUSH2 0xA7 JUMP JUMPDEST DUP1 PUSH4 0x8551A53 EQ PUSH2 0xAC JUMPI DUP1 PUSH4 0x12FA6FEB EQ PUSH2 0xD7 JUMPI DUP1 PUSH4 0x1998AEEF EQ PUSH2 0x102 JUMPI DUP1 PUSH4 0x1F2698AB EQ PUSH2 0x10C JUMPI DUP1 PUSH4 0x3CCFD60B EQ PUSH2 0x137 JUMPI DUP1 PUSH4 0x62EA82DB EQ PUSH2 0x14E JUMPI JUMPDEST PUSH1 0x0 DUP1 REVERT JUMPDEST CALLVALUE DUP1 ISZERO PUSH2 0xB8 JUMPI PUSH1 0x0 DUP1 REVERT JUMPDEST POP PUSH2 0xC1 PUSH2 0x265 JUMP JUMPDEST PUSH1 0x40 MLOAD PUSH2 0xCE SWAP2 SWAP1 PUSH2 0xC33 JUMP JUMPDEST PUSH1 0x40 MLOAD DUP1 SWAP2 SUB SWAP1 RETURN JUMPDEST CALLVALUE DUP1 ISZERO PUSH2 0xE3 JUMPI PUSH1 0x0 DUP1 REVERT JUMPDEST POP PUSH2 0xEC PUSH2 0x289 JUMP JUMPDEST PUSH1 0x40 MLOAD PUSH2 0xF9 SWAP2 SWAP1 PUSH2 0xC77 JUMP JUMPDEST PUSH1 0x40 MLOAD DUP1 SWAP2 SUB SWAP1 RETURN JUMPDEST PUSH2 0x10A PUSH2 0x29C JUMP JUMPDEST STOP JUMPDEST CALLVALUE DUP1 ISZERO PUSH2 0x118 JUMPI PUSH1 0x0 DUP1 REVERT JUMPDEST POP PUSH2 0x121 PUSH2 0x483 JUMP JUMPDEST PUSH1 0x40 MLOAD PUSH2 0x12E SWAP2 SWAP1 PUSH2 0xC77 JUMP JUMPDEST PUSH1 0x40 MLOAD DUP1 SWAP2 SUB SWAP1 RETURN JUMPDEST CALLVALUE DUP1 ISZERO PUSH2 0x143 JUMPI PUSH1 0x0 DUP1 REVERT JUMPDEST POP PUSH2 0x14C PUSH2 0x496 JUMP JUMPDEST STOP JUMPDEST CALLVALUE DUP1 ISZERO PUSH2 0x15A JUMPI PUSH1 0x0 DUP1 REVERT JUMPDEST POP PUSH2 0x175 PUSH1 0x4 DUP1 CALLDATASIZE SUB DUP2 ADD SWAP1 PUSH2 0x170 SWAP2 SWAP1 PUSH2 0xA01 JUMP JUMPDEST PUSH2 0x5AC JUMP JUMPDEST PUSH1 0x40 MLOAD PUSH2 0x182 SWAP2 SWAP1 PUSH2 0xDC4 JUMP JUMPDEST PUSH1 0x40 MLOAD DUP1 SWAP2 SUB SWAP1 RETURN JUMPDEST CALLVALUE DUP1 ISZERO PUSH2 0x197 JUMPI PUSH1 0x0 DUP1 REVERT JUMPDEST POP PUSH2 0x1A0 PUSH2 0x5C4 JUMP JUMPDEST PUSH1 0x40 MLOAD PUSH2 0x1AD SWAP2 SWAP1 PUSH2 0xDC4 JUMP JUMPDEST PUSH1 0x40 MLOAD DUP1 SWAP2 SUB SWAP1 RETURN JUMPDEST CALLVALUE DUP1 ISZERO PUSH2 0x1C2 JUMPI PUSH1 0x0 DUP1 REVERT JUMPDEST POP PUSH2 0x1CB PUSH2 0x5CA JUMP JUMPDEST PUSH1 0x40 MLOAD PUSH2 0x1D8 SWAP2 SWAP1 PUSH2 0xC18 JUMP JUMPDEST PUSH1 0x40 MLOAD DUP1 SWAP2 SUB SWAP1 RETURN JUMPDEST CALLVALUE DUP1 ISZERO PUSH2 0x1ED JUMPI PUSH1 0x0 DUP1 REVERT JUMPDEST POP PUSH2 0x1F6 PUSH2 0x5F0 JUMP JUMPDEST STOP JUMPDEST CALLVALUE DUP1 ISZERO PUSH2 0x204 JUMPI PUSH1 0x0 DUP1 REVERT JUMPDEST POP PUSH2 0x20D PUSH2 0x73A JUMP JUMPDEST PUSH1 0x40 MLOAD PUSH2 0x21A SWAP2 SWAP1 PUSH2 0xDC4 JUMP JUMPDEST PUSH1 0x40 MLOAD DUP1 SWAP2 SUB SWAP1 RETURN JUMPDEST CALLVALUE DUP1 ISZERO PUSH2 0x22F JUMPI PUSH1 0x0 DUP1 REVERT JUMPDEST POP PUSH2 0x238 PUSH2 0x740 JUMP JUMPDEST STOP JUMPDEST CALLVALUE DUP1 ISZERO PUSH2 0x246 JUMPI PUSH1 0x0 DUP1 REVERT JUMPDEST POP PUSH2 0x24F PUSH2 0x95E JUMP JUMPDEST PUSH1 0x40 MLOAD PUSH2 0x25C SWAP2 SWAP1 PUSH2 0xC92 JUMP JUMPDEST PUSH1 0x40 MLOAD DUP1 SWAP2 SUB SWAP1 RETURN JUMPDEST PUSH32 0x0 DUP2 JUMP JUMPDEST PUSH1 0x2 PUSH1 0x1 SWAP1 SLOAD SWAP1 PUSH2 0x100 EXP SWAP1 DIV PUSH1 0xFF AND DUP2 JUMP JUMPDEST PUSH1 0x2 PUSH1 0x0 SWAP1 SLOAD SWAP1 PUSH2 0x100 EXP SWAP1 DIV PUSH1 0xFF AND PUSH2 0x2EB JUMPI PUSH1 0x40 MLOAD PUSH32 0x8C379A000000000000000000000000000000000000000000000000000000000 DUP2 MSTORE PUSH1 0x4 ADD PUSH2 0x2E2 SWAP1 PUSH2 0xD24 JUMP JUMPDEST PUSH1 0x40 MLOAD DUP1 SWAP2 SUB SWAP1 REVERT JUMPDEST PUSH1 0x3 SLOAD CALLVALUE GT PUSH2 0x32F JUMPI PUSH1 0x40 MLOAD PUSH32 0x8C379A000000000000000000000000000000000000000000000000000000000 DUP2 MSTORE PUSH1 0x4 ADD PUSH2 0x326 SWAP1 PUSH2 0xD84 JUMP JUMPDEST PUSH1 0x40 MLOAD DUP1 SWAP2 SUB SWAP1 REVERT JUMPDEST PUSH1 0x0 PUSH20 0xFFFFFFFFFFFFFFFFFFFFFFFFFFFFFFFFFFFFFFFF AND PUSH1 0x4 PUSH1 0x0 SWAP1 SLOAD SWAP1 PUSH2 0x100 EXP SWAP1 DIV PUSH20 0xFFFFFFFFFFFFFFFFFFFFFFFFFFFFFFFFFFFFFFFF AND PUSH20 0xFFFFFFFFFFFFFFFFFFFFFFFFFFFFFFFFFFFFFFFF AND EQ PUSH2 0x400 JUMPI PUSH1 0x3 SLOAD PUSH1 0x5 PUSH1 0x0 PUSH1 0x4 PUSH1 0x0 SWAP1 SLOAD SWAP1 PUSH2 0x100 EXP SWAP1 DIV PUSH20 0xFFFFFFFFFFFFFFFFFFFFFFFFFFFFFFFFFFFFFFFF AND PUSH20 0xFFFFFFFFFFFFFFFFFFFFFFFFFFFFFFFFFFFFFFFF AND PUSH20 0xFFFFFFFFFFFFFFFFFFFFFFFFFFFFFFFFFFFFFFFF AND DUP2 MSTORE PUSH1 0x20 ADD SWAP1 DUP2 MSTORE PUSH1 0x20 ADD PUSH1 0x0 KECCAK256 PUSH1 0x0 DUP3 DUP3 SLOAD PUSH2 0x3F8 SWAP2 SWAP1 PUSH2 0xE10 JUMP JUMPDEST SWAP3 POP POP DUP2 SWAP1 SSTORE POP JUMPDEST CALLVALUE PUSH1 0x3 DUP2 SWAP1 SSTORE POP CALLER PUSH1 0x4 PUSH1 0x0 PUSH2 0x100 EXP DUP2 SLOAD DUP2 PUSH20 0xFFFFFFFFFFFFFFFFFFFFFFFFFFFFFFFFFFFFFFFF MUL NOT AND SWAP1 DUP4 PUSH20 0xFFFFFFFFFFFFFFFFFFFFFFFFFFFFFFFFFFFFFFFF AND MUL OR SWAP1 SSTORE POP PUSH32 0xE684A55F31B79ECA403DF938249029212A5925EC6BE8012E099B45BC1019E5D2 CALLER CALLVALUE PUSH1 0x40 MLOAD PUSH2 0x479 SWAP3 SWAP2 SWAP1 PUSH2 0xC4E JUMP JUMPDEST PUSH1 0x40 MLOAD DUP1 SWAP2 SUB SWAP1 LOG1 JUMP JUMPDEST PUSH1 0x2 PUSH1 0x0 SWAP1 SLOAD SWAP1 PUSH2 0x100 EXP SWAP1 DIV PUSH1 0xFF AND DUP2 JUMP JUMPDEST PUSH1 0x0 PUSH1 0x5 PUSH1 0x0 CALLER PUSH20 0xFFFFFFFFFFFFFFFFFFFFFFFFFFFFFFFFFFFFFFFF AND PUSH20 0xFFFFFFFFFFFFFFFFFFFFFFFFFFFFFFFFFFFFFFFF AND DUP2 MSTORE PUSH1 0x20 ADD SWAP1 DUP2 MSTORE PUSH1 0x20 ADD PUSH1 0x0 KECCAK256 SLOAD SWAP1 POP PUSH1 0x0 DUP2 GT PUSH2 0x51D JUMPI PUSH1 0x40 MLOAD PUSH32 0x8C379A000000000000000000000000000000000000000000000000000000000 DUP2 MSTORE PUSH1 0x4 ADD PUSH2 0x514 SWAP1 PUSH2 0xD64 JUMP JUMPDEST PUSH1 0x40 MLOAD DUP1 SWAP2 SUB SWAP1 REVERT JUMPDEST PUSH1 0x0 PUSH1 0x5 PUSH1 0x0 CALLER PUSH20 0xFFFFFFFFFFFFFFFFFFFFFFFFFFFFFFFFFFFFFFFF AND PUSH20 0xFFFFFFFFFFFFFFFFFFFFFFFFFFFFFFFFFFFFFFFF AND DUP2 MSTORE PUSH1 0x20 ADD SWAP1 DUP2 MSTORE PUSH1 0x20 ADD PUSH1 0x0 KECCAK256 DUP2 SWAP1 SSTORE POP CALLER PUSH20 0xFFFFFFFFFFFFFFFFFFFFFFFFFFFFFFFFFFFFFFFF AND PUSH2 0x8FC DUP3 SWAP1 DUP2 ISZERO MUL SWAP1 PUSH1 0x40 MLOAD PUSH1 0x0 PUSH1 0x40 MLOAD DUP1 DUP4 SUB DUP2 DUP6 DUP9 DUP9 CALL SWAP4 POP POP POP POP ISZERO DUP1 ISZERO PUSH2 0x5A8 JUMPI RETURNDATASIZE PUSH1 0x0 DUP1 RETURNDATACOPY RETURNDATASIZE PUSH1 0x0 REVERT JUMPDEST POP POP JUMP JUMPDEST PUSH1 0x5 PUSH1 0x20 MSTORE DUP1 PUSH1 0x0 MSTORE PUSH1 0x40 PUSH1 0x0 KECCAK256 PUSH1 0x0 SWAP2 POP SWAP1 POP SLOAD DUP2 JUMP JUMPDEST PUSH1 0x1 SLOAD DUP2 JUMP JUMPDEST PUSH1 0x4 PUSH1 0x0 SWAP1 SLOAD SWAP1 PUSH2 0x100 EXP SWAP1 DIV PUSH20 0xFFFFFFFFFFFFFFFFFFFFFFFFFFFFFFFFFFFFFFFF AND DUP2 JUMP JUMPDEST PUSH32 0x0 PUSH20 0xFFFFFFFFFFFFFFFFFFFFFFFFFFFFFFFFFFFFFFFF AND CALLER PUSH20 0xFFFFFFFFFFFFFFFFFFFFFFFFFFFFFFFFFFFFFFFF AND EQ PUSH2 0x67E JUMPI PUSH1 0x40 MLOAD PUSH32 0x8C379A000000000000000000000000000000000000000000000000000000000 DUP2 MSTORE PUSH1 0x4 ADD PUSH2 0x675 SWAP1 PUSH2 0xD44 JUMP JUMPDEST PUSH1 0x40 MLOAD DUP1 SWAP2 SUB SWAP1 REVERT JUMPDEST PUSH1 0x2 PUSH1 0x0 SWAP1 SLOAD SWAP1 PUSH2 0x100 EXP SWAP1 DIV PUSH1 0xFF AND ISZERO PUSH2 0x6CE JUMPI PUSH1 0x40 MLOAD PUSH32 0x8C379A000000000000000000000000000000000000000000000000000000000 DUP2 MSTORE PUSH1 0x4 ADD PUSH2 0x6C5 SWAP1 PUSH2 0xD04 JUMP JUMPDEST PUSH1 0x40 MLOAD DUP1 SWAP2 SUB SWAP1 REVERT JUMPDEST PUSH1 0x1 PUSH1 0x2 PUSH1 0x0 PUSH2 0x100 EXP DUP2 SLOAD DUP2 PUSH1 0xFF MUL NOT AND SWAP1 DUP4 ISZERO ISZERO MUL OR SWAP1 SSTORE POP PUSH1 0x46 TIMESTAMP PUSH2 0x6F6 SWAP2 SWAP1 PUSH2 0xE10 JUMP JUMPDEST PUSH1 0x1 DUP2 SWAP1 SSTORE POP PUSH32 0x26B8C73018EA4E6299B90779C551701C61C7845A0AF0F962D555582369819B8E PUSH1 0x0 PUSH1 0x3 SLOAD PUSH1 0x40 MLOAD PUSH2 0x730 SWAP3 SWAP2 SWAP1 PUSH2 0xCB4 JUMP JUMPDEST PUSH1 0x40 MLOAD DUP1 SWAP2 SUB SWAP1 LOG1 JUMP JUMPDEST PUSH1 0x3 SLOAD DUP2 JUMP JUMPDEST PUSH1 0x2 PUSH1 0x0 SWAP1 SLOAD SWAP1 PUSH2 0x100 EXP SWAP1 DIV PUSH1 0xFF AND PUSH2 0x78F JUMPI PUSH1 0x40 MLOAD PUSH32 0x8C379A000000000000000000000000000000000000000000000000000000000 DUP2 MSTORE PUSH1 0x4 ADD PUSH2 0x786 SWAP1 PUSH2 0xD24 JUMP JUMPDEST PUSH1 0x40 MLOAD DUP1 SWAP2 SUB SWAP1 REVERT JUMPDEST PUSH1 0x2 PUSH1 0x1 SWAP1 SLOAD SWAP1 PUSH2 0x100 EXP SWAP1 DIV PUSH1 0xFF AND ISZERO PUSH2 0x7DF JUMPI PUSH1 0x40 MLOAD PUSH32 0x8C379A000000000000000000000000000000000000000000000000000000000 DUP2 MSTORE PUSH1 0x4 ADD PUSH2 0x7D6 SWAP1 PUSH2 0xDA4 JUMP JUMPDEST PUSH1 0x40 MLOAD DUP1 SWAP2 SUB SWAP1 REVERT JUMPDEST PUSH1 0x1 SLOAD TIMESTAMP LT ISZERO PUSH2 0x824 JUMPI PUSH1 0x40 MLOAD PUSH32 0x8C379A000000000000000000000000000000000000000000000000000000000 DUP2 MSTORE PUSH1 0x4 ADD PUSH2 0x81B SWAP1 PUSH2 0xCE4 JUMP JUMPDEST PUSH1 0x40 MLOAD DUP1 SWAP2 SUB SWAP1 REVERT JUMPDEST PUSH1 0x1 PUSH1 0x2 PUSH1 0x1 PUSH2 0x100 EXP DUP2 SLOAD DUP2 PUSH1 0xFF MUL NOT AND SWAP1 DUP4 ISZERO ISZERO MUL OR SWAP1 SSTORE POP PUSH1 0x0 PUSH20 0xFFFFFFFFFFFFFFFFFFFFFFFFFFFFFFFFFFFFFFFF AND PUSH1 0x4 PUSH1 0x0 SWAP1 SLOAD SWAP1 PUSH2 0x100 EXP SWAP1 DIV PUSH20 0xFFFFFFFFFFFFFFFFFFFFFFFFFFFFFFFFFFFFFFFF AND PUSH20 0xFFFFFFFFFFFFFFFFFFFFFFFFFFFFFFFFFFFFFFFF AND EQ PUSH2 0x8FF JUMPI PUSH32 0x0 PUSH20 0xFFFFFFFFFFFFFFFFFFFFFFFFFFFFFFFFFFFFFFFF AND PUSH2 0x8FC PUSH1 0x3 SLOAD SWAP1 DUP2 ISZERO MUL SWAP1 PUSH1 0x40 MLOAD PUSH1 0x0 PUSH1 0x40 MLOAD DUP1 DUP4 SUB DUP2 DUP6 DUP9 DUP9 CALL SWAP4 POP POP POP POP ISZERO DUP1 ISZERO PUSH2 0x8FD JUMPI RETURNDATASIZE PUSH1 0x0 DUP1 RETURNDATACOPY RETURNDATASIZE PUSH1 0x0 REVERT JUMPDEST POP JUMPDEST PUSH32 0x7D7570B046E5EAD3A4F3FBC9FA2445113625A1E79823776146316BAFED6B8CC5 PUSH1 0x4 PUSH1 0x0 SWAP1 SLOAD SWAP1 PUSH2 0x100 EXP SWAP1 DIV PUSH20 0xFFFFFFFFFFFFFFFFFFFFFFFFFFFFFFFFFFFFFFFF AND PUSH1 0x3 SLOAD PUSH1 0x40 MLOAD PUSH2 0x954 SWAP3 SWAP2 SWAP1 PUSH2 0xC4E JUMP JUMPDEST PUSH1 0x40 MLOAD DUP1 SWAP2 SUB SWAP1 LOG1 JUMP JUMPDEST PUSH1 0x0 DUP1 SLOAD PUSH2 0x96B SWAP1 PUSH2 0xEF3 JUMP JUMPDEST DUP1 PUSH1 0x1F ADD PUSH1 0x20 DUP1 SWAP2 DIV MUL PUSH1 0x20 ADD PUSH1 0x40 MLOAD SWAP1 DUP2 ADD PUSH1 0x40 MSTORE DUP1 SWAP3 SWAP2 SWAP1 DUP2 DUP2 MSTORE PUSH1 0x20 ADD DUP3 DUP1 SLOAD PUSH2 0x997 SWAP1 PUSH2 0xEF3 JUMP JUMPDEST DUP1 ISZERO PUSH2 0x9E4 JUMPI DUP1 PUSH1 0x1F LT PUSH2 0x9B9 JUMPI PUSH2 0x100 DUP1 DUP4 SLOAD DIV MUL DUP4 MSTORE SWAP2 PUSH1 0x20 ADD SWAP2 PUSH2 0x9E4 JUMP JUMPDEST DUP3 ADD SWAP2 SWAP1 PUSH1 0x0 MSTORE PUSH1 0x20 PUSH1 0x0 KECCAK256 SWAP1 JUMPDEST DUP2 SLOAD DUP2 MSTORE SWAP1 PUSH1 0x1 ADD SWAP1 PUSH1 0x20 ADD DUP1 DUP4 GT PUSH2 0x9C7 JUMPI DUP3 SWAP1 SUB PUSH1 0x1F AND DUP3 ADD SWAP2 JUMPDEST POP POP POP POP POP DUP2 JUMP JUMPDEST PUSH1 0x0 DUP2 CALLDATALOAD SWAP1 POP PUSH2 0x9FB DUP2 PUSH2 0x10B8 JUMP JUMPDEST SWAP3 SWAP2 POP POP JUMP JUMPDEST PUSH1 0x0 PUSH1 0x20 DUP3 DUP5 SUB SLT ISZERO PUSH2 0xA17 JUMPI PUSH2 0xA16 PUSH2 0xF83 JUMP JUMPDEST JUMPDEST PUSH1 0x0 PUSH2 0xA25 DUP5 DUP3 DUP6 ADD PUSH2 0x9EC JUMP JUMPDEST SWAP2 POP POP SWAP3 SWAP2 POP POP JUMP JUMPDEST PUSH2 0xA37 DUP2 PUSH2 0xE78 JUMP JUMPDEST DUP3 MSTORE POP POP JUMP JUMPDEST PUSH2 0xA46 DUP2 PUSH2 0xE66 JUMP JUMPDEST DUP3 MSTORE POP POP JUMP JUMPDEST PUSH2 0xA55 DUP2 PUSH2 0xE8A JUMP JUMPDEST DUP3 MSTORE POP POP JUMP JUMPDEST PUSH1 0x0 PUSH2 0xA66 DUP3 PUSH2 0xDF4 JUMP JUMPDEST PUSH2 0xA70 DUP2 DUP6 PUSH2 0xDFF JUMP JUMPDEST SWAP4 POP PUSH2 0xA80 DUP2 DUP6 PUSH1 0x20 DUP7 ADD PUSH2 0xEC0 JUMP JUMPDEST PUSH2 0xA89 DUP2 PUSH2 0xF88 JUMP JUMPDEST DUP5 ADD SWAP2 POP POP SWAP3 SWAP2 POP POP JUMP JUMPDEST PUSH1 0x0 DUP2 SLOAD PUSH2 0xAA1 DUP2 PUSH2 0xEF3 JUMP JUMPDEST PUSH2 0xAAB DUP2 DUP7 PUSH2 0xDFF JUMP JUMPDEST SWAP5 POP PUSH1 0x1 DUP3 AND PUSH1 0x0 DUP2 EQ PUSH2 0xAC6 JUMPI PUSH1 0x1 DUP2 EQ PUSH2 0xAD8 JUMPI PUSH2 0xB0B JUMP JUMPDEST PUSH1 0xFF NOT DUP4 AND DUP7 MSTORE PUSH1 0x20 DUP7 ADD SWAP4 POP PUSH2 0xB0B JUMP JUMPDEST PUSH2 0xAE1 DUP6 PUSH2 0xDDF JUMP JUMPDEST PUSH1 0x0 JUMPDEST DUP4 DUP2 LT ISZERO PUSH2 0xB03 JUMPI DUP2 SLOAD DUP2 DUP10 ADD MSTORE PUSH1 0x1 DUP3 ADD SWAP2 POP PUSH1 0x20 DUP2 ADD SWAP1 POP PUSH2 0xAE4 JUMP JUMPDEST DUP1 DUP9 ADD SWAP6 POP POP POP JUMPDEST POP POP POP SWAP3 SWAP2 POP POP JUMP JUMPDEST PUSH1 0x0 PUSH2 0xB21 PUSH1 0x10 DUP4 PUSH2 0xDFF JUMP JUMPDEST SWAP2 POP PUSH2 0xB2C DUP3 PUSH2 0xF99 JUMP JUMPDEST PUSH1 0x20 DUP3 ADD SWAP1 POP SWAP2 SWAP1 POP JUMP JUMPDEST PUSH1 0x0 PUSH2 0xB44 PUSH1 0xE DUP4 PUSH2 0xDFF JUMP JUMPDEST SWAP2 POP PUSH2 0xB4F DUP3 PUSH2 0xFC2 JUMP JUMPDEST PUSH1 0x20 DUP3 ADD SWAP1 POP SWAP2 SWAP1 POP JUMP JUMPDEST PUSH1 0x0 PUSH2 0xB67 PUSH1 0x14 DUP4 PUSH2 0xDFF JUMP JUMPDEST SWAP2 POP PUSH2 0xB72 DUP3 PUSH2 0xFEB JUMP JUMPDEST PUSH1 0x20 DUP3 ADD SWAP1 POP SWAP2 SWAP1 POP JUMP JUMPDEST PUSH1 0x0 PUSH2 0xB8A PUSH1 0xC DUP4 PUSH2 0xDFF JUMP JUMPDEST SWAP2 POP PUSH2 0xB95 DUP3 PUSH2 0x1014 JUMP JUMPDEST PUSH1 0x20 DUP3 ADD SWAP1 POP SWAP2 SWAP1 POP JUMP JUMPDEST PUSH1 0x0 PUSH2 0xBAD PUSH1 0x9 DUP4 PUSH2 0xDFF JUMP JUMPDEST SWAP2 POP PUSH2 0xBB8 DUP3 PUSH2 0x103D JUMP JUMPDEST PUSH1 0x20 DUP3 ADD SWAP1 POP SWAP2 SWAP1 POP JUMP JUMPDEST PUSH1 0x0 PUSH2 0xBD0 PUSH1 0x15 DUP4 PUSH2 0xDFF JUMP JUMPDEST SWAP2 POP PUSH2 0xBDB DUP3 PUSH2 0x1066 JUMP JUMPDEST PUSH1 0x20 DUP3 ADD SWAP1 POP SWAP2 SWAP1 POP JUMP JUMPDEST PUSH1 0x0 PUSH2 0xBF3 PUSH1 0xD DUP4 PUSH2 0xDFF JUMP JUMPDEST SWAP2 POP PUSH2 0xBFE DUP3 PUSH2 0x108F JUMP JUMPDEST PUSH1 0x20 DUP3 ADD SWAP1 POP SWAP2 SWAP1 POP JUMP JUMPDEST PUSH2 0xC12 DUP2 PUSH2 0xEB6 JUMP JUMPDEST DUP3 MSTORE POP POP JUMP JUMPDEST PUSH1 0x0 PUSH1 0x20 DUP3 ADD SWAP1 POP PUSH2 0xC2D PUSH1 0x0 DUP4 ADD DUP5 PUSH2 0xA3D JUMP JUMPDEST SWAP3 SWAP2 POP POP JUMP JUMPDEST PUSH1 0x0 PUSH1 0x20 DUP3 ADD SWAP1 POP PUSH2 0xC48 PUSH1 0x0 DUP4 ADD DUP5 PUSH2 0xA2E JUMP JUMPDEST SWAP3 SWAP2 POP POP JUMP JUMPDEST PUSH1 0x0 PUSH1 0x40 DUP3 ADD SWAP1 POP PUSH2 0xC63 PUSH1 0x0 DUP4 ADD DUP6 PUSH2 0xA3D JUMP JUMPDEST PUSH2 0xC70 PUSH1 0x20 DUP4 ADD DUP5 PUSH2 0xC09 JUMP JUMPDEST SWAP4 SWAP3 POP POP POP JUMP JUMPDEST PUSH1 0x0 PUSH1 0x20 DUP3 ADD SWAP1 POP PUSH2 0xC8C PUSH1 0x0 DUP4 ADD DUP5 PUSH2 0xA4C JUMP JUMPDEST SWAP3 SWAP2 POP POP JUMP JUMPDEST PUSH1 0x0 PUSH1 0x20 DUP3 ADD SWAP1 POP DUP2 DUP2 SUB PUSH1 0x0 DUP4 ADD MSTORE PUSH2 0xCAC DUP2 DUP5 PUSH2 0xA5B JUMP JUMPDEST SWAP1 POP SWAP3 SWAP2 POP POP JUMP JUMPDEST PUSH1 0x0 PUSH1 0x40 DUP3 ADD SWAP1 POP DUP2 DUP2 SUB PUSH1 0x0 DUP4 ADD MSTORE PUSH2 0xCCE DUP2 DUP6 PUSH2 0xA94 JUMP JUMPDEST SWAP1 POP PUSH2 0xCDD PUSH1 0x20 DUP4 ADD DUP5 PUSH2 0xC09 JUMP JUMPDEST SWAP4 SWAP3 POP POP POP JUMP JUMPDEST PUSH1 0x0 PUSH1 0x20 DUP3 ADD SWAP1 POP DUP2 DUP2 SUB PUSH1 0x0 DUP4 ADD MSTORE PUSH2 0xCFD DUP2 PUSH2 0xB14 JUMP JUMPDEST SWAP1 POP SWAP2 SWAP1 POP JUMP JUMPDEST PUSH1 0x0 PUSH1 0x20 DUP3 ADD SWAP1 POP DUP2 DUP2 SUB PUSH1 0x0 DUP4 ADD MSTORE PUSH2 0xD1D DUP2 PUSH2 0xB37 JUMP JUMPDEST SWAP1 POP SWAP2 SWAP1 POP JUMP JUMPDEST PUSH1 0x0 PUSH1 0x20 DUP3 ADD SWAP1 POP DUP2 DUP2 SUB PUSH1 0x0 DUP4 ADD MSTORE PUSH2 0xD3D DUP2 PUSH2 0xB5A JUMP JUMPDEST SWAP1 POP SWAP2 SWAP1 POP JUMP JUMPDEST PUSH1 0x0 PUSH1 0x20 DUP3 ADD SWAP1 POP DUP2 DUP2 SUB PUSH1 0x0 DUP4 ADD MSTORE PUSH2 0xD5D DUP2 PUSH2 0xB7D JUMP JUMPDEST SWAP1 POP SWAP2 SWAP1 POP JUMP JUMPDEST PUSH1 0x0 PUSH1 0x20 DUP3 ADD SWAP1 POP DUP2 DUP2 SUB PUSH1 0x0 DUP4 ADD MSTORE PUSH2 0xD7D DUP2 PUSH2 0xBA0 JUMP JUMPDEST SWAP1 POP SWAP2 SWAP1 POP JUMP JUMPDEST PUSH1 0x0 PUSH1 0x20 DUP3 ADD SWAP1 POP DUP2 DUP2 SUB PUSH1 0x0 DUP4 ADD MSTORE PUSH2 0xD9D DUP2 PUSH2 0xBC3 JUMP JUMPDEST SWAP1 POP SWAP2 SWAP1 POP JUMP JUMPDEST PUSH1 0x0 PUSH1 0x20 DUP3 ADD SWAP1 POP DUP2 DUP2 SUB PUSH1 0x0 DUP4 ADD MSTORE PUSH2 0xDBD DUP2 PUSH2 0xBE6 JUMP JUMPDEST SWAP1 POP SWAP2 SWAP1 POP JUMP JUMPDEST PUSH1 0x0 PUSH1 0x20 DUP3 ADD SWAP1 POP PUSH2 0xDD9 PUSH1 0x0 DUP4 ADD DUP5 PUSH2 0xC09 JUMP JUMPDEST SWAP3 SWAP2 POP POP JUMP JUMPDEST PUSH1 0x0 DUP2 SWAP1 POP DUP2 PUSH1 0x0 MSTORE PUSH1 0x20 PUSH1 0x0 KECCAK256 SWAP1 POP SWAP2 SWAP1 POP JUMP JUMPDEST PUSH1 0x0 DUP2 MLOAD SWAP1 POP SWAP2 SWAP1 POP JUMP JUMPDEST PUSH1 0x0 DUP3 DUP3 MSTORE PUSH1 0x20 DUP3 ADD SWAP1 POP SWAP3 SWAP2 POP POP JUMP JUMPDEST PUSH1 0x0 PUSH2 0xE1B DUP3 PUSH2 0xEB6 JUMP JUMPDEST SWAP2 POP PUSH2 0xE26 DUP4 PUSH2 0xEB6 JUMP JUMPDEST SWAP3 POP DUP3 PUSH32 0xFFFFFFFFFFFFFFFFFFFFFFFFFFFFFFFFFFFFFFFFFFFFFFFFFFFFFFFFFFFFFFFF SUB DUP3 GT ISZERO PUSH2 0xE5B JUMPI PUSH2 0xE5A PUSH2 0xF25 JUMP JUMPDEST JUMPDEST DUP3 DUP3 ADD SWAP1 POP SWAP3 SWAP2 POP POP JUMP JUMPDEST PUSH1 0x0 PUSH2 0xE71 DUP3 PUSH2 0xE96 JUMP JUMPDEST SWAP1 POP SWAP2 SWAP1 POP JUMP JUMPDEST PUSH1 0x0 PUSH2 0xE83 DUP3 PUSH2 0xE96 JUMP JUMPDEST SWAP1 POP SWAP2 SWAP1 POP JUMP JUMPDEST PUSH1 0x0 DUP2 ISZERO ISZERO SWAP1 POP SWAP2 SWAP1 POP JUMP JUMPDEST PUSH1 0x0 PUSH20 0xFFFFFFFFFFFFFFFFFFFFFFFFFFFFFFFFFFFFFFFF DUP3 AND SWAP1 POP SWAP2 SWAP1 POP JUMP JUMPDEST PUSH1 0x0 DUP2 SWAP1 POP SWAP2 SWAP1 POP JUMP JUMPDEST PUSH1 0x0 JUMPDEST DUP4 DUP2 LT ISZERO PUSH2 0xEDE JUMPI DUP1 DUP3 ADD MLOAD DUP2 DUP5 ADD MSTORE PUSH1 0x20 DUP2 ADD SWAP1 POP PUSH2 0xEC3 JUMP JUMPDEST DUP4 DUP2 GT ISZERO PUSH2 0xEED JUMPI PUSH1 0x0 DUP5 DUP5 ADD MSTORE JUMPDEST POP POP POP POP JUMP JUMPDEST PUSH1 0x0 PUSH1 0x2 DUP3 DIV SWAP1 POP PUSH1 0x1 DUP3 AND DUP1 PUSH2 0xF0B JUMPI PUSH1 0x7F DUP3 AND SWAP2 POP JUMPDEST PUSH1 0x20 DUP3 LT DUP2 EQ ISZERO PUSH2 0xF1F JUMPI PUSH2 0xF1E PUSH2 0xF54 JUMP JUMPDEST JUMPDEST POP SWAP2 SWAP1 POP JUMP JUMPDEST PUSH32 0x4E487B7100000000000000000000000000000000000000000000000000000000 PUSH1 0x0 MSTORE PUSH1 0x11 PUSH1 0x4 MSTORE PUSH1 0x24 PUSH1 0x0 REVERT JUMPDEST PUSH32 0x4E487B7100000000000000000000000000000000000000000000000000000000 PUSH1 0x0 MSTORE PUSH1 0x22 PUSH1 0x4 MSTORE PUSH1 0x24 PUSH1 0x0 REVERT JUMPDEST PUSH1 0x0 DUP1 REVERT JUMPDEST PUSH1 0x0 PUSH1 0x1F NOT PUSH1 0x1F DUP4 ADD AND SWAP1 POP SWAP2 SWAP1 POP JUMP JUMPDEST PUSH32 0x43414E27542053544F50204D414E4E5900000000000000000000000000000000 PUSH1 0x0 DUP3 ADD MSTORE POP JUMP JUMPDEST PUSH32 0x414C5245414459204F4E20424948000000000000000000000000000000000000 PUSH1 0x0 DUP3 ADD MSTORE POP JUMP JUMPDEST PUSH32 0x49542041494E54205354415254454420464F4F4C000000000000000000000000 PUSH1 0x0 DUP3 ADD MSTORE POP JUMP JUMPDEST PUSH32 0x57484F2041524520594F553F0000000000000000000000000000000000000000 PUSH1 0x0 DUP3 ADD MSTORE POP JUMP JUMPDEST PUSH32 0x696E636F72726563740000000000000000000000000000000000000000000000 PUSH1 0x0 DUP3 ADD MSTORE POP JUMP JUMPDEST PUSH32 0x594F552042524F4B453F204E4F5420454E4F5547480000000000000000000000 PUSH1 0x0 DUP3 ADD MSTORE POP JUMP JUMPDEST PUSH32 0x616C726561647920656E64656400000000000000000000000000000000000000 PUSH1 0x0 DUP3 ADD MSTORE POP JUMP JUMPDEST PUSH2 0x10C1 DUP2 PUSH2 0xE66 JUMP JUMPDEST DUP2 EQ PUSH2 0x10CC JUMPI PUSH1 0x0 DUP1 REVERT JUMPDEST POP JUMP INVALID LOG2 PUSH5 0x6970667358 0x22 SLT KECCAK256 0xAC COINBASE EXTCODESIZE 0xD8 PUSH28 0x9D7C8196E0DAC473805B4F220DBF101BBE2C065CBD917AA1AEEC9464 PUSH20 0x6F6C634300080700330000000000000000000000 "
				},
				"gasEstimates": {
					"creation": {
						"codeDepositCost": "871400",
						"executionCost": "infinite",
						"totalCost": "infinite"
					},
					"external": {
						"bid()": "infinite",
						"bids(address)": "2925",
						"end()": "infinite",
						"endAt()": "2429",
						"ended()": "2544",
						"highestBid()": "2495",
						"highestBidder()": "2536",
						"item()": "infinite",
						"seller()": "infinite",
						"start()": "infinite",
						"started()": "2538",
						"withdraw()": "infinite"
					}
				},
				"methodIdentifiers": {
					"bid()": "1998aeef",
					"bids(address)": "62ea82db",
					"end()": "efbe1c1c",
					"endAt()": "7cc3ae8c",
					"ended()": "12fa6feb",
					"highestBid()": "d57bde79",
					"highestBidder()": "91f90157",
					"item()": "f2a4a82e",
					"seller()": "08551a53",
					"start()": "be9a6555",
					"started()": "1f2698ab",
					"withdraw()": "3ccfd60b"
				}
			},
			"storageLayout": {
				"storage": [
					{
						"astId": 3,
						"contract": "Auctions/_EnglishAuction.sol:EnglishAuction",
						"label": "item",
						"offset": 0,
						"slot": "0",
						"type": "t_string_storage"
					},
					{
						"astId": 7,
						"contract": "Auctions/_EnglishAuction.sol:EnglishAuction",
						"label": "endAt",
						"offset": 0,
						"slot": "1",
						"type": "t_uint256"
					},
					{
						"astId": 9,
						"contract": "Auctions/_EnglishAuction.sol:EnglishAuction",
						"label": "started",
						"offset": 0,
						"slot": "2",
						"type": "t_bool"
					},
					{
						"astId": 11,
						"contract": "Auctions/_EnglishAuction.sol:EnglishAuction",
						"label": "ended",
						"offset": 1,
						"slot": "2",
						"type": "t_bool"
					},
					{
						"astId": 13,
						"contract": "Auctions/_EnglishAuction.sol:EnglishAuction",
						"label": "highestBid",
						"offset": 0,
						"slot": "3",
						"type": "t_uint256"
					},
					{
						"astId": 15,
						"contract": "Auctions/_EnglishAuction.sol:EnglishAuction",
						"label": "highestBidder",
						"offset": 0,
						"slot": "4",
						"type": "t_address"
					},
					{
						"astId": 19,
						"contract": "Auctions/_EnglishAuction.sol:EnglishAuction",
						"label": "bids",
						"offset": 0,
						"slot": "5",
						"type": "t_mapping(t_address,t_uint256)"
					}
				],
				"types": {
					"t_address": {
						"encoding": "inplace",
						"label": "address",
						"numberOfBytes": "20"
					},
					"t_bool": {
						"encoding": "inplace",
						"label": "bool",
						"numberOfBytes": "1"
					},
					"t_mapping(t_address,t_uint256)": {
						"encoding": "mapping",
						"key": "t_address",
						"label": "mapping(address => uint256)",
						"numberOfBytes": "32",
						"value": "t_uint256"
					},
					"t_string_storage": {
						"encoding": "bytes",
						"label": "string",
						"numberOfBytes": "32"
					},
					"t_uint256": {
						"encoding": "inplace",
						"label": "uint256",
						"numberOfBytes": "32"
					}
				}
			},
			"userdoc": {
				"kind": "user",
				"methods": {},
				"version": 1
			}
		}
	}
}